{"contracts/NftAuctionV2.sol":{"NftAuctionV2":{"abi":[{"inputs":[],"name":"InvalidInitialization","type":"error"},{"inputs":[],"name":"NotInitializing","type":"error"},{"anonymous":false,"inputs":[{"indexed":false,"internalType":"uint64","name":"version","type":"uint64"}],"name":"Initialized","type":"event"},{"inputs":[],"name":"admin","outputs":[{"internalType":"address","name":"","type":"address"}],"stateMutability":"view","type":"function"},{"inputs":[{"internalType":"uint256","name":"","type":"uint256"}],"name":"auctions","outputs":[{"internalType":"address","name":"seller","type":"address"},{"internalType":"uint256","name":"duration","type":"uint256"},{"internalType":"uint256","name":"startPrice","type":"uint256"},{"internalType":"bool","name":"ended","type":"bool"},{"internalType":"address","name":"highestBidder","type":"address"},{"internalType":"uint256","name":"startTime","type":"uint256"},{"internalType":"uint256","name":"highestBid","type":"uint256"},{"internalType":"address","name":"nftContract","type":"address"},{"internalType":"uint256","name":"tokenId","type":"uint256"}],"stateMutability":"view","type":"function"},{"inputs":[{"internalType":"uint256","name":"_duration","type":"uint256"},{"internalType":"uint256","name":"_startPrice","type":"uint256"},{"internalType":"address","name":"_nftAddress","type":"address"},{"internalType":"uint256","name":"_tokenId","type":"uint256"}],"name":"createAuction","outputs":[],"stateMutability":"nonpayable","type":"function"},{"inputs":[],"name":"initialize","outputs":[],"stateMutability":"nonpayable","type":"function"},{"inputs":[],"name":"nextAuctionId","outputs":[{"internalType":"uint256","name":"","type":"uint256"}],"stateMutability":"view","type":"function"},{"inputs":[{"internalType":"uint256","name":"_auctionId","type":"uint256"}],"name":"placeBid","outputs":[],"stateMutability":"payable","type":"function"},{"inputs":[],"name":"testHello","outputs":[{"internalType":"string","name":"","type":"string"}],"stateMutability":"pure","type":"function"}],"devdoc":{"errors":{"InvalidInitialization()":[{"details":"The contract is already initialized."}],"NotInitializing()":[{"details":"The contract is not initializing."}]},"events":{"Initialized(uint64)":{"details":"Triggered when the contract has been initialized or reinitialized."}},"kind":"dev","methods":{},"version":1},"evm":{"bytecode":{"linkReferences":{},"object":"6080604052348015600f57600080fd5b506110478061001f6000396000f3fe6080604052600436106100705760003560e01c8063b1cb48ef1161004e578063b1cb48ef146100ed578063c97c635314610116578063f851a44014610141578063fc5284821461016c57610070565b8063571a26a0146100755780638129fc1c146100ba5780639979ef45146100d1575b600080fd5b34801561008157600080fd5b5061009c600480360381019061009791906109ea565b610197565b6040516100b199989796959493929190610a82565b60405180910390f35b3480156100c657600080fd5b506100cf610252565b005b6100eb60048036038101906100e691906109ea565b610418565b005b3480156100f957600080fd5b50610114600480360381019061010f9190610b3b565b61060d565b005b34801561012257600080fd5b5061012b610907565b6040516101389190610c32565b60405180910390f35b34801561014d57600080fd5b50610156610944565b6040516101639190610c54565b60405180910390f35b34801561017857600080fd5b5061018161096a565b60405161018e9190610c6f565b60405180910390f35b60006020528060005260406000206000915090508060000160009054906101000a900473ffffffffffffffffffffffffffffffffffffffff16908060010154908060020154908060030160009054906101000a900460ff16908060030160019054906101000a900473ffffffffffffffffffffffffffffffffffffffff16908060040154908060050154908060060160009054906101000a900473ffffffffffffffffffffffffffffffffffffffff16908060070154905089565b600061025c610970565b905060008160000160089054906101000a900460ff1615905060008260000160009054906101000a900467ffffffffffffffff1690506000808267ffffffffffffffff161480156102aa5750825b9050600060018367ffffffffffffffff161480156102df575060003073ffffffffffffffffffffffffffffffffffffffff163b145b9050811580156102ed575080155b15610324576040517ff92ee8a900000000000000000000000000000000000000000000000000000000815260040160405180910390fd5b60018560000160006101000a81548167ffffffffffffffff021916908367ffffffffffffffff16021790555083156103745760018560000160086101000a81548160ff0219169083151502179055505b33600260006101000a81548173ffffffffffffffffffffffffffffffffffffffff021916908373ffffffffffffffffffffffffffffffffffffffff16021790555083156104115760008560000160086101000a81548160ff0219169083151502179055507fc7f505b2f371ae2175ee4913f4499e1f2633a7b5936321eed1cdaeb6115181d260016040516104089190610ce3565b60405180910390a15b5050505050565b600080600083815260200190815260200160002090508060030160009054906101000a900460ff161580156104605750428160010154826004015461045d9190610d2d565b11155b61049f576040517f08c379a000000000000000000000000000000000000000000000000000000000815260040161049690610dad565b60405180910390fd5b8060050154341180156104b6575080600201543410155b6104f5576040517f08c379a00000000000000000000000000000000000000000000000000000000081526004016104ec90610e3f565b60405180910390fd5b600073ffffffffffffffffffffffffffffffffffffffff168160030160019054906101000a900473ffffffffffffffffffffffffffffffffffffffff1673ffffffffffffffffffffffffffffffffffffffff16146105bd578060030160019054906101000a900473ffffffffffffffffffffffffffffffffffffffff1673ffffffffffffffffffffffffffffffffffffffff166108fc82600501549081150290604051600060405180830381858888f193505050501580156105bb573d6000803e3d6000fd5b505b338160030160016101000a81548173ffffffffffffffffffffffffffffffffffffffff021916908373ffffffffffffffffffffffffffffffffffffffff1602179055503481600501819055505050565b600260009054906101000a900473ffffffffffffffffffffffffffffffffffffffff1673ffffffffffffffffffffffffffffffffffffffff163373ffffffffffffffffffffffffffffffffffffffff161461069d576040517f08c379a000000000000000000000000000000000000000000000000000000000815260040161069490610eab565b60405180910390fd5b600084116106e0576040517f08c379a00000000000000000000000000000000000000000000000000000000081526004016106d790610f17565b60405180910390fd5b60008311610723576040517f08c379a000000000000000000000000000000000000000000000000000000000815260040161071a90610fa9565b60405180910390fd5b6040518061012001604052803373ffffffffffffffffffffffffffffffffffffffff168152602001858152602001848152602001600015158152602001600073ffffffffffffffffffffffffffffffffffffffff168152602001428152602001600081526020018373ffffffffffffffffffffffffffffffffffffffff16815260200182815250600080600154815260200190815260200160002060008201518160000160006101000a81548173ffffffffffffffffffffffffffffffffffffffff021916908373ffffffffffffffffffffffffffffffffffffffff160217905550602082015181600101556040820151816002015560608201518160030160006101000a81548160ff02191690831515021790555060808201518160030160016101000a81548173ffffffffffffffffffffffffffffffffffffffff021916908373ffffffffffffffffffffffffffffffffffffffff16021790555060a0820151816004015560c0820151816005015560e08201518160060160006101000a81548173ffffffffffffffffffffffffffffffffffffffff021916908373ffffffffffffffffffffffffffffffffffffffff1602179055506101008201518160070155905050600160008154809291906108fc90610fc9565b919050555050505050565b60606040518060400160405280600d81526020017f48656c6c6f2c20576f726c642100000000000000000000000000000000000000815250905090565b600260009054906101000a900473ffffffffffffffffffffffffffffffffffffffff1681565b60015481565b60008061097b610984565b90508091505090565b60007ff0c57e16840df040f15088dc2f81fe391c3923bec73e23a9662efc9c229c6a0060001b905090565b600080fd5b6000819050919050565b6109c7816109b4565b81146109d257600080fd5b50565b6000813590506109e4816109be565b92915050565b600060208284031215610a00576109ff6109af565b5b6000610a0e848285016109d5565b91505092915050565b600073ffffffffffffffffffffffffffffffffffffffff82169050919050565b6000610a4282610a17565b9050919050565b610a5281610a37565b82525050565b610a61816109b4565b82525050565b60008115159050919050565b610a7c81610a67565b82525050565b600061012082019050610a98600083018c610a49565b610aa5602083018b610a58565b610ab2604083018a610a58565b610abf6060830189610a73565b610acc6080830188610a49565b610ad960a0830187610a58565b610ae660c0830186610a58565b610af360e0830185610a49565b610b01610100830184610a58565b9a9950505050505050505050565b610b1881610a37565b8114610b2357600080fd5b50565b600081359050610b3581610b0f565b92915050565b60008060008060808587031215610b5557610b546109af565b5b6000610b63878288016109d5565b9450506020610b74878288016109d5565b9350506040610b8587828801610b26565b9250506060610b96878288016109d5565b91505092959194509250565b600081519050919050565b600082825260208201905092915050565b60005b83811015610bdc578082015181840152602081019050610bc1565b60008484015250505050565b6000601f19601f8301169050919050565b6000610c0482610ba2565b610c0e8185610bad565b9350610c1e818560208601610bbe565b610c2781610be8565b840191505092915050565b60006020820190508181036000830152610c4c8184610bf9565b905092915050565b6000602082019050610c696000830184610a49565b92915050565b6000602082019050610c846000830184610a58565b92915050565b6000819050919050565b600067ffffffffffffffff82169050919050565b6000819050919050565b6000610ccd610cc8610cc384610c8a565b610ca8565b610c94565b9050919050565b610cdd81610cb2565b82525050565b6000602082019050610cf86000830184610cd4565b92915050565b7f4e487b7100000000000000000000000000000000000000000000000000000000600052601160045260246000fd5b6000610d38826109b4565b9150610d43836109b4565b9250828201905080821115610d5b57610d5a610cfe565b5b92915050565b7f41756374696f6e2068617320656e6465642e0000000000000000000000000000600082015250565b6000610d97601283610bad565b9150610da282610d61565b602082019050919050565b60006020820190508181036000830152610dc681610d8a565b9050919050565b7f426964206d75737420766520686967686572207468616e20746865206375727260008201527f656e742068696768657374206269642e00000000000000000000000000000000602082015250565b6000610e29603083610bad565b9150610e3482610dcd565b604082019050919050565b60006020820190508181036000830152610e5881610e1c565b9050919050565b7f4f6e6c792061646d696e206372656174652061756374696f6e73000000000000600082015250565b6000610e95601a83610bad565b9150610ea082610e5f565b602082019050919050565b60006020820190508181036000830152610ec481610e88565b9050919050565b7f4475726174696f6e206d7573742062652067726561746572207468616e203000600082015250565b6000610f01601f83610bad565b9150610f0c82610ecb565b602082019050919050565b60006020820190508181036000830152610f3081610ef4565b9050919050565b7f5374617274207072696365206d7573742062652067726561746572207468616e60008201527f2030000000000000000000000000000000000000000000000000000000000000602082015250565b6000610f93602283610bad565b9150610f9e82610f37565b604082019050919050565b60006020820190508181036000830152610fc281610f86565b9050919050565b6000610fd4826109b4565b91507fffffffffffffffffffffffffffffffffffffffffffffffffffffffffffffffff820361100657611005610cfe565b5b60018201905091905056fea2646970667358221220f2fcab005f1834f2fad190f32ed3f4e1fb336e833834149680aa83454184eb3464736f6c634300081c0033","opcodes":"PUSH1 0x80 PUSH1 0x40 MSTORE CALLVALUE DUP1 ISZERO PUSH1 0xF JUMPI PUSH1 0x0 DUP1 REVERT JUMPDEST POP PUSH2 0x1047 DUP1 PUSH2 0x1F PUSH1 0x0 CODECOPY PUSH1 0x0 RETURN INVALID PUSH1 0x80 PUSH1 0x40 MSTORE PUSH1 0x4 CALLDATASIZE LT PUSH2 0x70 JUMPI PUSH1 0x0 CALLDATALOAD PUSH1 0xE0 SHR DUP1 PUSH4 0xB1CB48EF GT PUSH2 0x4E JUMPI DUP1 PUSH4 0xB1CB48EF EQ PUSH2 0xED JUMPI DUP1 PUSH4 0xC97C6353 EQ PUSH2 0x116 JUMPI DUP1 PUSH4 0xF851A440 EQ PUSH2 0x141 JUMPI DUP1 PUSH4 0xFC528482 EQ PUSH2 0x16C JUMPI PUSH2 0x70 JUMP JUMPDEST DUP1 PUSH4 0x571A26A0 EQ PUSH2 0x75 JUMPI DUP1 PUSH4 0x8129FC1C EQ PUSH2 0xBA JUMPI DUP1 PUSH4 0x9979EF45 EQ PUSH2 0xD1 JUMPI JUMPDEST PUSH1 0x0 DUP1 REVERT JUMPDEST CALLVALUE DUP1 ISZERO PUSH2 0x81 JUMPI PUSH1 0x0 DUP1 REVERT JUMPDEST POP PUSH2 0x9C PUSH1 0x4 DUP1 CALLDATASIZE SUB DUP2 ADD SWAP1 PUSH2 0x97 SWAP2 SWAP1 PUSH2 0x9EA JUMP JUMPDEST PUSH2 0x197 JUMP JUMPDEST PUSH1 0x40 MLOAD PUSH2 0xB1 SWAP10 SWAP9 SWAP8 SWAP7 SWAP6 SWAP5 SWAP4 SWAP3 SWAP2 SWAP1 PUSH2 0xA82 JUMP JUMPDEST PUSH1 0x40 MLOAD DUP1 SWAP2 SUB SWAP1 RETURN JUMPDEST CALLVALUE DUP1 ISZERO PUSH2 0xC6 JUMPI PUSH1 0x0 DUP1 REVERT JUMPDEST POP PUSH2 0xCF PUSH2 0x252 JUMP JUMPDEST STOP JUMPDEST PUSH2 0xEB PUSH1 0x4 DUP1 CALLDATASIZE SUB DUP2 ADD SWAP1 PUSH2 0xE6 SWAP2 SWAP1 PUSH2 0x9EA JUMP JUMPDEST PUSH2 0x418 JUMP JUMPDEST STOP JUMPDEST CALLVALUE DUP1 ISZERO PUSH2 0xF9 JUMPI PUSH1 0x0 DUP1 REVERT JUMPDEST POP PUSH2 0x114 PUSH1 0x4 DUP1 CALLDATASIZE SUB DUP2 ADD SWAP1 PUSH2 0x10F SWAP2 SWAP1 PUSH2 0xB3B JUMP JUMPDEST PUSH2 0x60D JUMP JUMPDEST STOP JUMPDEST CALLVALUE DUP1 ISZERO PUSH2 0x122 JUMPI PUSH1 0x0 DUP1 REVERT JUMPDEST POP PUSH2 0x12B PUSH2 0x907 JUMP JUMPDEST PUSH1 0x40 MLOAD PUSH2 0x138 SWAP2 SWAP1 PUSH2 0xC32 JUMP JUMPDEST PUSH1 0x40 MLOAD DUP1 SWAP2 SUB SWAP1 RETURN JUMPDEST CALLVALUE DUP1 ISZERO PUSH2 0x14D JUMPI PUSH1 0x0 DUP1 REVERT JUMPDEST POP PUSH2 0x156 PUSH2 0x944 JUMP JUMPDEST PUSH1 0x40 MLOAD PUSH2 0x163 SWAP2 SWAP1 PUSH2 0xC54 JUMP JUMPDEST PUSH1 0x40 MLOAD DUP1 SWAP2 SUB SWAP1 RETURN JUMPDEST CALLVALUE DUP1 ISZERO PUSH2 0x178 JUMPI PUSH1 0x0 DUP1 REVERT JUMPDEST POP PUSH2 0x181 PUSH2 0x96A JUMP JUMPDEST PUSH1 0x40 MLOAD PUSH2 0x18E SWAP2 SWAP1 PUSH2 0xC6F JUMP JUMPDEST PUSH1 0x40 MLOAD DUP1 SWAP2 SUB SWAP1 RETURN JUMPDEST PUSH1 0x0 PUSH1 0x20 MSTORE DUP1 PUSH1 0x0 MSTORE PUSH1 0x40 PUSH1 0x0 KECCAK256 PUSH1 0x0 SWAP2 POP SWAP1 POP DUP1 PUSH1 0x0 ADD PUSH1 0x0 SWAP1 SLOAD SWAP1 PUSH2 0x100 EXP SWAP1 DIV PUSH20 0xFFFFFFFFFFFFFFFFFFFFFFFFFFFFFFFFFFFFFFFF AND SWAP1 DUP1 PUSH1 0x1 ADD SLOAD SWAP1 DUP1 PUSH1 0x2 ADD SLOAD SWAP1 DUP1 PUSH1 0x3 ADD PUSH1 0x0 SWAP1 SLOAD SWAP1 PUSH2 0x100 EXP SWAP1 DIV PUSH1 0xFF AND SWAP1 DUP1 PUSH1 0x3 ADD PUSH1 0x1 SWAP1 SLOAD SWAP1 PUSH2 0x100 EXP SWAP1 DIV PUSH20 0xFFFFFFFFFFFFFFFFFFFFFFFFFFFFFFFFFFFFFFFF AND SWAP1 DUP1 PUSH1 0x4 ADD SLOAD SWAP1 DUP1 PUSH1 0x5 ADD SLOAD SWAP1 DUP1 PUSH1 0x6 ADD PUSH1 0x0 SWAP1 SLOAD SWAP1 PUSH2 0x100 EXP SWAP1 DIV PUSH20 0xFFFFFFFFFFFFFFFFFFFFFFFFFFFFFFFFFFFFFFFF AND SWAP1 DUP1 PUSH1 0x7 ADD SLOAD SWAP1 POP DUP10 JUMP JUMPDEST PUSH1 0x0 PUSH2 0x25C PUSH2 0x970 JUMP JUMPDEST SWAP1 POP PUSH1 0x0 DUP2 PUSH1 0x0 ADD PUSH1 0x8 SWAP1 SLOAD SWAP1 PUSH2 0x100 EXP SWAP1 DIV PUSH1 0xFF AND ISZERO SWAP1 POP PUSH1 0x0 DUP3 PUSH1 0x0 ADD PUSH1 0x0 SWAP1 SLOAD SWAP1 PUSH2 0x100 EXP SWAP1 DIV PUSH8 0xFFFFFFFFFFFFFFFF AND SWAP1 POP PUSH1 0x0 DUP1 DUP3 PUSH8 0xFFFFFFFFFFFFFFFF AND EQ DUP1 ISZERO PUSH2 0x2AA JUMPI POP DUP3 JUMPDEST SWAP1 POP PUSH1 0x0 PUSH1 0x1 DUP4 PUSH8 0xFFFFFFFFFFFFFFFF AND EQ DUP1 ISZERO PUSH2 0x2DF JUMPI POP PUSH1 0x0 ADDRESS PUSH20 0xFFFFFFFFFFFFFFFFFFFFFFFFFFFFFFFFFFFFFFFF AND EXTCODESIZE EQ JUMPDEST SWAP1 POP DUP2 ISZERO DUP1 ISZERO PUSH2 0x2ED JUMPI POP DUP1 ISZERO JUMPDEST ISZERO PUSH2 0x324 JUMPI PUSH1 0x40 MLOAD PUSH32 0xF92EE8A900000000000000000000000000000000000000000000000000000000 DUP2 MSTORE PUSH1 0x4 ADD PUSH1 0x40 MLOAD DUP1 SWAP2 SUB SWAP1 REVERT JUMPDEST PUSH1 0x1 DUP6 PUSH1 0x0 ADD PUSH1 0x0 PUSH2 0x100 EXP DUP2 SLOAD DUP2 PUSH8 0xFFFFFFFFFFFFFFFF MUL NOT AND SWAP1 DUP4 PUSH8 0xFFFFFFFFFFFFFFFF AND MUL OR SWAP1 SSTORE POP DUP4 ISZERO PUSH2 0x374 JUMPI PUSH1 0x1 DUP6 PUSH1 0x0 ADD PUSH1 0x8 PUSH2 0x100 EXP DUP2 SLOAD DUP2 PUSH1 0xFF MUL NOT AND SWAP1 DUP4 ISZERO ISZERO MUL OR SWAP1 SSTORE POP JUMPDEST CALLER PUSH1 0x2 PUSH1 0x0 PUSH2 0x100 EXP DUP2 SLOAD DUP2 PUSH20 0xFFFFFFFFFFFFFFFFFFFFFFFFFFFFFFFFFFFFFFFF MUL NOT AND SWAP1 DUP4 PUSH20 0xFFFFFFFFFFFFFFFFFFFFFFFFFFFFFFFFFFFFFFFF AND MUL OR SWAP1 SSTORE POP DUP4 ISZERO PUSH2 0x411 JUMPI PUSH1 0x0 DUP6 PUSH1 0x0 ADD PUSH1 0x8 PUSH2 0x100 EXP DUP2 SLOAD DUP2 PUSH1 0xFF MUL NOT AND SWAP1 DUP4 ISZERO ISZERO MUL OR SWAP1 SSTORE POP PUSH32 0xC7F505B2F371AE2175EE4913F4499E1F2633A7B5936321EED1CDAEB6115181D2 PUSH1 0x1 PUSH1 0x40 MLOAD PUSH2 0x408 SWAP2 SWAP1 PUSH2 0xCE3 JUMP JUMPDEST PUSH1 0x40 MLOAD DUP1 SWAP2 SUB SWAP1 LOG1 JUMPDEST POP POP POP POP POP JUMP JUMPDEST PUSH1 0x0 DUP1 PUSH1 0x0 DUP4 DUP2 MSTORE PUSH1 0x20 ADD SWAP1 DUP2 MSTORE PUSH1 0x20 ADD PUSH1 0x0 KECCAK256 SWAP1 POP DUP1 PUSH1 0x3 ADD PUSH1 0x0 SWAP1 SLOAD SWAP1 PUSH2 0x100 EXP SWAP1 DIV PUSH1 0xFF AND ISZERO DUP1 ISZERO PUSH2 0x460 JUMPI POP TIMESTAMP DUP2 PUSH1 0x1 ADD SLOAD DUP3 PUSH1 0x4 ADD SLOAD PUSH2 0x45D SWAP2 SWAP1 PUSH2 0xD2D JUMP JUMPDEST GT ISZERO JUMPDEST PUSH2 0x49F JUMPI PUSH1 0x40 MLOAD PUSH32 0x8C379A000000000000000000000000000000000000000000000000000000000 DUP2 MSTORE PUSH1 0x4 ADD PUSH2 0x496 SWAP1 PUSH2 0xDAD JUMP JUMPDEST PUSH1 0x40 MLOAD DUP1 SWAP2 SUB SWAP1 REVERT JUMPDEST DUP1 PUSH1 0x5 ADD SLOAD CALLVALUE GT DUP1 ISZERO PUSH2 0x4B6 JUMPI POP DUP1 PUSH1 0x2 ADD SLOAD CALLVALUE LT ISZERO JUMPDEST PUSH2 0x4F5 JUMPI PUSH1 0x40 MLOAD PUSH32 0x8C379A000000000000000000000000000000000000000000000000000000000 DUP2 MSTORE PUSH1 0x4 ADD PUSH2 0x4EC SWAP1 PUSH2 0xE3F JUMP JUMPDEST PUSH1 0x40 MLOAD DUP1 SWAP2 SUB SWAP1 REVERT JUMPDEST PUSH1 0x0 PUSH20 0xFFFFFFFFFFFFFFFFFFFFFFFFFFFFFFFFFFFFFFFF AND DUP2 PUSH1 0x3 ADD PUSH1 0x1 SWAP1 SLOAD SWAP1 PUSH2 0x100 EXP SWAP1 DIV PUSH20 0xFFFFFFFFFFFFFFFFFFFFFFFFFFFFFFFFFFFFFFFF AND PUSH20 0xFFFFFFFFFFFFFFFFFFFFFFFFFFFFFFFFFFFFFFFF AND EQ PUSH2 0x5BD JUMPI DUP1 PUSH1 0x3 ADD PUSH1 0x1 SWAP1 SLOAD SWAP1 PUSH2 0x100 EXP SWAP1 DIV PUSH20 0xFFFFFFFFFFFFFFFFFFFFFFFFFFFFFFFFFFFFFFFF AND PUSH20 0xFFFFFFFFFFFFFFFFFFFFFFFFFFFFFFFFFFFFFFFF AND PUSH2 0x8FC DUP3 PUSH1 0x5 ADD SLOAD SWAP1 DUP2 ISZERO MUL SWAP1 PUSH1 0x40 MLOAD PUSH1 0x0 PUSH1 0x40 MLOAD DUP1 DUP4 SUB DUP2 DUP6 DUP9 DUP9 CALL SWAP4 POP POP POP POP ISZERO DUP1 ISZERO PUSH2 0x5BB JUMPI RETURNDATASIZE PUSH1 0x0 DUP1 RETURNDATACOPY RETURNDATASIZE PUSH1 0x0 REVERT JUMPDEST POP JUMPDEST CALLER DUP2 PUSH1 0x3 ADD PUSH1 0x1 PUSH2 0x100 EXP DUP2 SLOAD DUP2 PUSH20 0xFFFFFFFFFFFFFFFFFFFFFFFFFFFFFFFFFFFFFFFF MUL NOT AND SWAP1 DUP4 PUSH20 0xFFFFFFFFFFFFFFFFFFFFFFFFFFFFFFFFFFFFFFFF AND MUL OR SWAP1 SSTORE POP CALLVALUE DUP2 PUSH1 0x5 ADD DUP2 SWAP1 SSTORE POP POP POP JUMP JUMPDEST PUSH1 0x2 PUSH1 0x0 SWAP1 SLOAD SWAP1 PUSH2 0x100 EXP SWAP1 DIV PUSH20 0xFFFFFFFFFFFFFFFFFFFFFFFFFFFFFFFFFFFFFFFF AND PUSH20 0xFFFFFFFFFFFFFFFFFFFFFFFFFFFFFFFFFFFFFFFF AND CALLER PUSH20 0xFFFFFFFFFFFFFFFFFFFFFFFFFFFFFFFFFFFFFFFF AND EQ PUSH2 0x69D JUMPI PUSH1 0x40 MLOAD PUSH32 0x8C379A000000000000000000000000000000000000000000000000000000000 DUP2 MSTORE PUSH1 0x4 ADD PUSH2 0x694 SWAP1 PUSH2 0xEAB JUMP JUMPDEST PUSH1 0x40 MLOAD DUP1 SWAP2 SUB SWAP1 REVERT JUMPDEST PUSH1 0x0 DUP5 GT PUSH2 0x6E0 JUMPI PUSH1 0x40 MLOAD PUSH32 0x8C379A000000000000000000000000000000000000000000000000000000000 DUP2 MSTORE PUSH1 0x4 ADD PUSH2 0x6D7 SWAP1 PUSH2 0xF17 JUMP JUMPDEST PUSH1 0x40 MLOAD DUP1 SWAP2 SUB SWAP1 REVERT JUMPDEST PUSH1 0x0 DUP4 GT PUSH2 0x723 JUMPI PUSH1 0x40 MLOAD PUSH32 0x8C379A000000000000000000000000000000000000000000000000000000000 DUP2 MSTORE PUSH1 0x4 ADD PUSH2 0x71A SWAP1 PUSH2 0xFA9 JUMP JUMPDEST PUSH1 0x40 MLOAD DUP1 SWAP2 SUB SWAP1 REVERT JUMPDEST PUSH1 0x40 MLOAD DUP1 PUSH2 0x120 ADD PUSH1 0x40 MSTORE DUP1 CALLER PUSH20 0xFFFFFFFFFFFFFFFFFFFFFFFFFFFFFFFFFFFFFFFF AND DUP2 MSTORE PUSH1 0x20 ADD DUP6 DUP2 MSTORE PUSH1 0x20 ADD DUP5 DUP2 MSTORE PUSH1 0x20 ADD PUSH1 0x0 ISZERO ISZERO DUP2 MSTORE PUSH1 0x20 ADD PUSH1 0x0 PUSH20 0xFFFFFFFFFFFFFFFFFFFFFFFFFFFFFFFFFFFFFFFF AND DUP2 MSTORE PUSH1 0x20 ADD TIMESTAMP DUP2 MSTORE PUSH1 0x20 ADD PUSH1 0x0 DUP2 MSTORE PUSH1 0x20 ADD DUP4 PUSH20 0xFFFFFFFFFFFFFFFFFFFFFFFFFFFFFFFFFFFFFFFF AND DUP2 MSTORE PUSH1 0x20 ADD DUP3 DUP2 MSTORE POP PUSH1 0x0 DUP1 PUSH1 0x1 SLOAD DUP2 MSTORE PUSH1 0x20 ADD SWAP1 DUP2 MSTORE PUSH1 0x20 ADD PUSH1 0x0 KECCAK256 PUSH1 0x0 DUP3 ADD MLOAD DUP2 PUSH1 0x0 ADD PUSH1 0x0 PUSH2 0x100 EXP DUP2 SLOAD DUP2 PUSH20 0xFFFFFFFFFFFFFFFFFFFFFFFFFFFFFFFFFFFFFFFF MUL NOT AND SWAP1 DUP4 PUSH20 0xFFFFFFFFFFFFFFFFFFFFFFFFFFFFFFFFFFFFFFFF AND MUL OR SWAP1 SSTORE POP PUSH1 0x20 DUP3 ADD MLOAD DUP2 PUSH1 0x1 ADD SSTORE PUSH1 0x40 DUP3 ADD MLOAD DUP2 PUSH1 0x2 ADD SSTORE PUSH1 0x60 DUP3 ADD MLOAD DUP2 PUSH1 0x3 ADD PUSH1 0x0 PUSH2 0x100 EXP DUP2 SLOAD DUP2 PUSH1 0xFF MUL NOT AND SWAP1 DUP4 ISZERO ISZERO MUL OR SWAP1 SSTORE POP PUSH1 0x80 DUP3 ADD MLOAD DUP2 PUSH1 0x3 ADD PUSH1 0x1 PUSH2 0x100 EXP DUP2 SLOAD DUP2 PUSH20 0xFFFFFFFFFFFFFFFFFFFFFFFFFFFFFFFFFFFFFFFF MUL NOT AND SWAP1 DUP4 PUSH20 0xFFFFFFFFFFFFFFFFFFFFFFFFFFFFFFFFFFFFFFFF AND MUL OR SWAP1 SSTORE POP PUSH1 0xA0 DUP3 ADD MLOAD DUP2 PUSH1 0x4 ADD SSTORE PUSH1 0xC0 DUP3 ADD MLOAD DUP2 PUSH1 0x5 ADD SSTORE PUSH1 0xE0 DUP3 ADD MLOAD DUP2 PUSH1 0x6 ADD PUSH1 0x0 PUSH2 0x100 EXP DUP2 SLOAD DUP2 PUSH20 0xFFFFFFFFFFFFFFFFFFFFFFFFFFFFFFFFFFFFFFFF MUL NOT AND SWAP1 DUP4 PUSH20 0xFFFFFFFFFFFFFFFFFFFFFFFFFFFFFFFFFFFFFFFF AND MUL OR SWAP1 SSTORE POP PUSH2 0x100 DUP3 ADD MLOAD DUP2 PUSH1 0x7 ADD SSTORE SWAP1 POP POP PUSH1 0x1 PUSH1 0x0 DUP2 SLOAD DUP1 SWAP3 SWAP2 SWAP1 PUSH2 0x8FC SWAP1 PUSH2 0xFC9 JUMP JUMPDEST SWAP2 SWAP1 POP SSTORE POP POP POP POP POP JUMP JUMPDEST PUSH1 0x60 PUSH1 0x40 MLOAD DUP1 PUSH1 0x40 ADD PUSH1 0x40 MSTORE DUP1 PUSH1 0xD DUP2 MSTORE PUSH1 0x20 ADD PUSH32 0x48656C6C6F2C20576F726C642100000000000000000000000000000000000000 DUP2 MSTORE POP SWAP1 POP SWAP1 JUMP JUMPDEST PUSH1 0x2 PUSH1 0x0 SWAP1 SLOAD SWAP1 PUSH2 0x100 EXP SWAP1 DIV PUSH20 0xFFFFFFFFFFFFFFFFFFFFFFFFFFFFFFFFFFFFFFFF AND DUP2 JUMP JUMPDEST PUSH1 0x1 SLOAD DUP2 JUMP JUMPDEST PUSH1 0x0 DUP1 PUSH2 0x97B PUSH2 0x984 JUMP JUMPDEST SWAP1 POP DUP1 SWAP2 POP POP SWAP1 JUMP JUMPDEST PUSH1 0x0 PUSH32 0xF0C57E16840DF040F15088DC2F81FE391C3923BEC73E23A9662EFC9C229C6A00 PUSH1 0x0 SHL SWAP1 POP SWAP1 JUMP JUMPDEST PUSH1 0x0 DUP1 REVERT JUMPDEST PUSH1 0x0 DUP2 SWAP1 POP SWAP2 SWAP1 POP JUMP JUMPDEST PUSH2 0x9C7 DUP2 PUSH2 0x9B4 JUMP JUMPDEST DUP2 EQ PUSH2 0x9D2 JUMPI PUSH1 0x0 DUP1 REVERT JUMPDEST POP JUMP JUMPDEST PUSH1 0x0 DUP2 CALLDATALOAD SWAP1 POP PUSH2 0x9E4 DUP2 PUSH2 0x9BE JUMP JUMPDEST SWAP3 SWAP2 POP POP JUMP JUMPDEST PUSH1 0x0 PUSH1 0x20 DUP3 DUP5 SUB SLT ISZERO PUSH2 0xA00 JUMPI PUSH2 0x9FF PUSH2 0x9AF JUMP JUMPDEST JUMPDEST PUSH1 0x0 PUSH2 0xA0E DUP5 DUP3 DUP6 ADD PUSH2 0x9D5 JUMP JUMPDEST SWAP2 POP POP SWAP3 SWAP2 POP POP JUMP JUMPDEST PUSH1 0x0 PUSH20 0xFFFFFFFFFFFFFFFFFFFFFFFFFFFFFFFFFFFFFFFF DUP3 AND SWAP1 POP SWAP2 SWAP1 POP JUMP JUMPDEST PUSH1 0x0 PUSH2 0xA42 DUP3 PUSH2 0xA17 JUMP JUMPDEST SWAP1 POP SWAP2 SWAP1 POP JUMP JUMPDEST PUSH2 0xA52 DUP2 PUSH2 0xA37 JUMP JUMPDEST DUP3 MSTORE POP POP JUMP JUMPDEST PUSH2 0xA61 DUP2 PUSH2 0x9B4 JUMP JUMPDEST DUP3 MSTORE POP POP JUMP JUMPDEST PUSH1 0x0 DUP2 ISZERO ISZERO SWAP1 POP SWAP2 SWAP1 POP JUMP JUMPDEST PUSH2 0xA7C DUP2 PUSH2 0xA67 JUMP JUMPDEST DUP3 MSTORE POP POP JUMP JUMPDEST PUSH1 0x0 PUSH2 0x120 DUP3 ADD SWAP1 POP PUSH2 0xA98 PUSH1 0x0 DUP4 ADD DUP13 PUSH2 0xA49 JUMP JUMPDEST PUSH2 0xAA5 PUSH1 0x20 DUP4 ADD DUP12 PUSH2 0xA58 JUMP JUMPDEST PUSH2 0xAB2 PUSH1 0x40 DUP4 ADD DUP11 PUSH2 0xA58 JUMP JUMPDEST PUSH2 0xABF PUSH1 0x60 DUP4 ADD DUP10 PUSH2 0xA73 JUMP JUMPDEST PUSH2 0xACC PUSH1 0x80 DUP4 ADD DUP9 PUSH2 0xA49 JUMP JUMPDEST PUSH2 0xAD9 PUSH1 0xA0 DUP4 ADD DUP8 PUSH2 0xA58 JUMP JUMPDEST PUSH2 0xAE6 PUSH1 0xC0 DUP4 ADD DUP7 PUSH2 0xA58 JUMP JUMPDEST PUSH2 0xAF3 PUSH1 0xE0 DUP4 ADD DUP6 PUSH2 0xA49 JUMP JUMPDEST PUSH2 0xB01 PUSH2 0x100 DUP4 ADD DUP5 PUSH2 0xA58 JUMP JUMPDEST SWAP11 SWAP10 POP POP POP POP POP POP POP POP POP POP JUMP JUMPDEST PUSH2 0xB18 DUP2 PUSH2 0xA37 JUMP JUMPDEST DUP2 EQ PUSH2 0xB23 JUMPI PUSH1 0x0 DUP1 REVERT JUMPDEST POP JUMP JUMPDEST PUSH1 0x0 DUP2 CALLDATALOAD SWAP1 POP PUSH2 0xB35 DUP2 PUSH2 0xB0F JUMP JUMPDEST SWAP3 SWAP2 POP POP JUMP JUMPDEST PUSH1 0x0 DUP1 PUSH1 0x0 DUP1 PUSH1 0x80 DUP6 DUP8 SUB SLT ISZERO PUSH2 0xB55 JUMPI PUSH2 0xB54 PUSH2 0x9AF JUMP JUMPDEST JUMPDEST PUSH1 0x0 PUSH2 0xB63 DUP8 DUP3 DUP9 ADD PUSH2 0x9D5 JUMP JUMPDEST SWAP5 POP POP PUSH1 0x20 PUSH2 0xB74 DUP8 DUP3 DUP9 ADD PUSH2 0x9D5 JUMP JUMPDEST SWAP4 POP POP PUSH1 0x40 PUSH2 0xB85 DUP8 DUP3 DUP9 ADD PUSH2 0xB26 JUMP JUMPDEST SWAP3 POP POP PUSH1 0x60 PUSH2 0xB96 DUP8 DUP3 DUP9 ADD PUSH2 0x9D5 JUMP JUMPDEST SWAP2 POP POP SWAP3 SWAP6 SWAP2 SWAP5 POP SWAP3 POP JUMP JUMPDEST PUSH1 0x0 DUP2 MLOAD SWAP1 POP SWAP2 SWAP1 POP JUMP JUMPDEST PUSH1 0x0 DUP3 DUP3 MSTORE PUSH1 0x20 DUP3 ADD SWAP1 POP SWAP3 SWAP2 POP POP JUMP JUMPDEST PUSH1 0x0 JUMPDEST DUP4 DUP2 LT ISZERO PUSH2 0xBDC JUMPI DUP1 DUP3 ADD MLOAD DUP2 DUP5 ADD MSTORE PUSH1 0x20 DUP2 ADD SWAP1 POP PUSH2 0xBC1 JUMP JUMPDEST PUSH1 0x0 DUP5 DUP5 ADD MSTORE POP POP POP POP JUMP JUMPDEST PUSH1 0x0 PUSH1 0x1F NOT PUSH1 0x1F DUP4 ADD AND SWAP1 POP SWAP2 SWAP1 POP JUMP JUMPDEST PUSH1 0x0 PUSH2 0xC04 DUP3 PUSH2 0xBA2 JUMP JUMPDEST PUSH2 0xC0E DUP2 DUP6 PUSH2 0xBAD JUMP JUMPDEST SWAP4 POP PUSH2 0xC1E DUP2 DUP6 PUSH1 0x20 DUP7 ADD PUSH2 0xBBE JUMP JUMPDEST PUSH2 0xC27 DUP2 PUSH2 0xBE8 JUMP JUMPDEST DUP5 ADD SWAP2 POP POP SWAP3 SWAP2 POP POP JUMP JUMPDEST PUSH1 0x0 PUSH1 0x20 DUP3 ADD SWAP1 POP DUP2 DUP2 SUB PUSH1 0x0 DUP4 ADD MSTORE PUSH2 0xC4C DUP2 DUP5 PUSH2 0xBF9 JUMP JUMPDEST SWAP1 POP SWAP3 SWAP2 POP POP JUMP JUMPDEST PUSH1 0x0 PUSH1 0x20 DUP3 ADD SWAP1 POP PUSH2 0xC69 PUSH1 0x0 DUP4 ADD DUP5 PUSH2 0xA49 JUMP JUMPDEST SWAP3 SWAP2 POP POP JUMP JUMPDEST PUSH1 0x0 PUSH1 0x20 DUP3 ADD SWAP1 POP PUSH2 0xC84 PUSH1 0x0 DUP4 ADD DUP5 PUSH2 0xA58 JUMP JUMPDEST SWAP3 SWAP2 POP POP JUMP JUMPDEST PUSH1 0x0 DUP2 SWAP1 POP SWAP2 SWAP1 POP JUMP JUMPDEST PUSH1 0x0 PUSH8 0xFFFFFFFFFFFFFFFF DUP3 AND SWAP1 POP SWAP2 SWAP1 POP JUMP JUMPDEST PUSH1 0x0 DUP2 SWAP1 POP SWAP2 SWAP1 POP JUMP JUMPDEST PUSH1 0x0 PUSH2 0xCCD PUSH2 0xCC8 PUSH2 0xCC3 DUP5 PUSH2 0xC8A JUMP JUMPDEST PUSH2 0xCA8 JUMP JUMPDEST PUSH2 0xC94 JUMP JUMPDEST SWAP1 POP SWAP2 SWAP1 POP JUMP JUMPDEST PUSH2 0xCDD DUP2 PUSH2 0xCB2 JUMP JUMPDEST DUP3 MSTORE POP POP JUMP JUMPDEST PUSH1 0x0 PUSH1 0x20 DUP3 ADD SWAP1 POP PUSH2 0xCF8 PUSH1 0x0 DUP4 ADD DUP5 PUSH2 0xCD4 JUMP JUMPDEST SWAP3 SWAP2 POP POP JUMP JUMPDEST PUSH32 0x4E487B7100000000000000000000000000000000000000000000000000000000 PUSH1 0x0 MSTORE PUSH1 0x11 PUSH1 0x4 MSTORE PUSH1 0x24 PUSH1 0x0 REVERT JUMPDEST PUSH1 0x0 PUSH2 0xD38 DUP3 PUSH2 0x9B4 JUMP JUMPDEST SWAP2 POP PUSH2 0xD43 DUP4 PUSH2 0x9B4 JUMP JUMPDEST SWAP3 POP DUP3 DUP3 ADD SWAP1 POP DUP1 DUP3 GT ISZERO PUSH2 0xD5B JUMPI PUSH2 0xD5A PUSH2 0xCFE JUMP JUMPDEST JUMPDEST SWAP3 SWAP2 POP POP JUMP JUMPDEST PUSH32 0x41756374696F6E2068617320656E6465642E0000000000000000000000000000 PUSH1 0x0 DUP3 ADD MSTORE POP JUMP JUMPDEST PUSH1 0x0 PUSH2 0xD97 PUSH1 0x12 DUP4 PUSH2 0xBAD JUMP JUMPDEST SWAP2 POP PUSH2 0xDA2 DUP3 PUSH2 0xD61 JUMP JUMPDEST PUSH1 0x20 DUP3 ADD SWAP1 POP SWAP2 SWAP1 POP JUMP JUMPDEST PUSH1 0x0 PUSH1 0x20 DUP3 ADD SWAP1 POP DUP2 DUP2 SUB PUSH1 0x0 DUP4 ADD MSTORE PUSH2 0xDC6 DUP2 PUSH2 0xD8A JUMP JUMPDEST SWAP1 POP SWAP2 SWAP1 POP JUMP JUMPDEST PUSH32 0x426964206D75737420766520686967686572207468616E207468652063757272 PUSH1 0x0 DUP3 ADD MSTORE PUSH32 0x656E742068696768657374206269642E00000000000000000000000000000000 PUSH1 0x20 DUP3 ADD MSTORE POP JUMP JUMPDEST PUSH1 0x0 PUSH2 0xE29 PUSH1 0x30 DUP4 PUSH2 0xBAD JUMP JUMPDEST SWAP2 POP PUSH2 0xE34 DUP3 PUSH2 0xDCD JUMP JUMPDEST PUSH1 0x40 DUP3 ADD SWAP1 POP SWAP2 SWAP1 POP JUMP JUMPDEST PUSH1 0x0 PUSH1 0x20 DUP3 ADD SWAP1 POP DUP2 DUP2 SUB PUSH1 0x0 DUP4 ADD MSTORE PUSH2 0xE58 DUP2 PUSH2 0xE1C JUMP JUMPDEST SWAP1 POP SWAP2 SWAP1 POP JUMP JUMPDEST PUSH32 0x4F6E6C792061646D696E206372656174652061756374696F6E73000000000000 PUSH1 0x0 DUP3 ADD MSTORE POP JUMP JUMPDEST PUSH1 0x0 PUSH2 0xE95 PUSH1 0x1A DUP4 PUSH2 0xBAD JUMP JUMPDEST SWAP2 POP PUSH2 0xEA0 DUP3 PUSH2 0xE5F JUMP JUMPDEST PUSH1 0x20 DUP3 ADD SWAP1 POP SWAP2 SWAP1 POP JUMP JUMPDEST PUSH1 0x0 PUSH1 0x20 DUP3 ADD SWAP1 POP DUP2 DUP2 SUB PUSH1 0x0 DUP4 ADD MSTORE PUSH2 0xEC4 DUP2 PUSH2 0xE88 JUMP JUMPDEST SWAP1 POP SWAP2 SWAP1 POP JUMP JUMPDEST PUSH32 0x4475726174696F6E206D7573742062652067726561746572207468616E203000 PUSH1 0x0 DUP3 ADD MSTORE POP JUMP JUMPDEST PUSH1 0x0 PUSH2 0xF01 PUSH1 0x1F DUP4 PUSH2 0xBAD JUMP JUMPDEST SWAP2 POP PUSH2 0xF0C DUP3 PUSH2 0xECB JUMP JUMPDEST PUSH1 0x20 DUP3 ADD SWAP1 POP SWAP2 SWAP1 POP JUMP JUMPDEST PUSH1 0x0 PUSH1 0x20 DUP3 ADD SWAP1 POP DUP2 DUP2 SUB PUSH1 0x0 DUP4 ADD MSTORE PUSH2 0xF30 DUP2 PUSH2 0xEF4 JUMP JUMPDEST SWAP1 POP SWAP2 SWAP1 POP JUMP JUMPDEST PUSH32 0x5374617274207072696365206D7573742062652067726561746572207468616E PUSH1 0x0 DUP3 ADD MSTORE PUSH32 0x2030000000000000000000000000000000000000000000000000000000000000 PUSH1 0x20 DUP3 ADD MSTORE POP JUMP JUMPDEST PUSH1 0x0 PUSH2 0xF93 PUSH1 0x22 DUP4 PUSH2 0xBAD JUMP JUMPDEST SWAP2 POP PUSH2 0xF9E DUP3 PUSH2 0xF37 JUMP JUMPDEST PUSH1 0x40 DUP3 ADD SWAP1 POP SWAP2 SWAP1 POP JUMP JUMPDEST PUSH1 0x0 PUSH1 0x20 DUP3 ADD SWAP1 POP DUP2 DUP2 SUB PUSH1 0x0 DUP4 ADD MSTORE PUSH2 0xFC2 DUP2 PUSH2 0xF86 JUMP JUMPDEST SWAP1 POP SWAP2 SWAP1 POP JUMP JUMPDEST PUSH1 0x0 PUSH2 0xFD4 DUP3 PUSH2 0x9B4 JUMP JUMPDEST SWAP2 POP PUSH32 0xFFFFFFFFFFFFFFFFFFFFFFFFFFFFFFFFFFFFFFFFFFFFFFFFFFFFFFFFFFFFFFFF DUP3 SUB PUSH2 0x1006 JUMPI PUSH2 0x1005 PUSH2 0xCFE JUMP JUMPDEST JUMPDEST PUSH1 0x1 DUP3 ADD SWAP1 POP SWAP2 SWAP1 POP JUMP INVALID LOG2 PUSH5 0x6970667358 0x22 SLT KECCAK256 CALLCODE 0xFC 0xAB STOP PUSH0 XOR CALLVALUE CALLCODE STATICCALL 0xD1 SWAP1 RETURN 0x2E 0xD3 DELEGATECALL 0xE1 0xFB CALLER PUSH15 0x833834149680AA83454184EB346473 PUSH16 0x6C634300081C00330000000000000000 "},"gasEstimates":{"creation":{"codeDepositCost":"833400","executionCost":"870","totalCost":"834270"},"external":{"admin()":"2558","auctions(uint256)":"infinite","createAuction(uint256,uint256,address,uint256)":"infinite","initialize()":"105945","nextAuctionId()":"2495","placeBid(uint256)":"infinite","testHello()":"infinite"}},"methodIdentifiers":{"admin()":"f851a440","auctions(uint256)":"571a26a0","createAuction(uint256,uint256,address,uint256)":"b1cb48ef","initialize()":"8129fc1c","nextAuctionId()":"fc528482","placeBid(uint256)":"9979ef45","testHello()":"c97c6353"}},"storageLayout":{"storage":[{"astId":477,"contract":"contracts/NftAuctionV2.sol:NftAuctionV2","label":"auctions","offset":0,"slot":"0","type":"t_mapping(t_uint256,t_struct(Auction)472_storage)"},{"astId":479,"contract":"contracts/NftAuctionV2.sol:NftAuctionV2","label":"nextAuctionId","offset":0,"slot":"1","type":"t_uint256"},{"astId":481,"contract":"contracts/NftAuctionV2.sol:NftAuctionV2","label":"admin","offset":0,"slot":"2","type":"t_address"}],"types":{"t_address":{"encoding":"inplace","label":"address","numberOfBytes":"20"},"t_bool":{"encoding":"inplace","label":"bool","numberOfBytes":"1"},"t_mapping(t_uint256,t_struct(Auction)472_storage)":{"encoding":"mapping","key":"t_uint256","label":"mapping(uint256 => struct NftAuctionV2.Auction)","numberOfBytes":"32","value":"t_struct(Auction)472_storage"},"t_struct(Auction)472_storage":{"encoding":"inplace","label":"struct NftAuctionV2.Auction","members":[{"astId":455,"contract":"contracts/NftAuctionV2.sol:NftAuctionV2","label":"seller","offset":0,"slot":"0","type":"t_address"},{"astId":457,"contract":"contracts/NftAuctionV2.sol:NftAuctionV2","label":"duration","offset":0,"slot":"1","type":"t_uint256"},{"astId":459,"contract":"contracts/NftAuctionV2.sol:NftAuctionV2","label":"startPrice","offset":0,"slot":"2","type":"t_uint256"},{"astId":461,"contract":"contracts/NftAuctionV2.sol:NftAuctionV2","label":"ended","offset":0,"slot":"3","type":"t_bool"},{"astId":463,"contract":"contracts/NftAuctionV2.sol:NftAuctionV2","label":"highestBidder","offset":1,"slot":"3","type":"t_address"},{"astId":465,"contract":"contracts/NftAuctionV2.sol:NftAuctionV2","label":"startTime","offset":0,"slot":"4","type":"t_uint256"},{"astId":467,"contract":"contracts/NftAuctionV2.sol:NftAuctionV2","label":"highestBid","offset":0,"slot":"5","type":"t_uint256"},{"astId":469,"contract":"contracts/NftAuctionV2.sol:NftAuctionV2","label":"nftContract","offset":0,"slot":"6","type":"t_address"},{"astId":471,"contract":"contracts/NftAuctionV2.sol:NftAuctionV2","label":"tokenId","offset":0,"slot":"7","type":"t_uint256"}],"numberOfBytes":"256"},"t_uint256":{"encoding":"inplace","label":"uint256","numberOfBytes":"32"}}},"userdoc":{"kind":"user","methods":{},"version":1}}}}