{
  "_format": "hh-sol-artifact-1",
  "contractName": "NftAuctionV2",
  "sourceName": "contracts/NftAuctionV2.sol",
  "abi": [
    {
      "inputs": [],
      "name": "InvalidInitialization",
      "type": "error"
    },
    {
      "inputs": [],
      "name": "NotInitializing",
      "type": "error"
    },
    {
      "anonymous": false,
      "inputs": [
        {
          "indexed": false,
          "internalType": "uint64",
          "name": "version",
          "type": "uint64"
        }
      ],
      "name": "Initialized",
      "type": "event"
    },
    {
      "inputs": [],
      "name": "admin",
      "outputs": [
        {
          "internalType": "address",
          "name": "",
          "type": "address"
        }
      ],
      "stateMutability": "view",
      "type": "function"
    },
    {
      "inputs": [
        {
          "internalType": "uint256",
          "name": "_duration",
          "type": "uint256"
        },
        {
          "internalType": "uint256",
          "name": "_startPrice",
          "type": "uint256"
        },
        {
          "internalType": "address",
          "name": "_nftAddress",
          "type": "address"
        },
        {
          "internalType": "uint256",
          "name": "_tokenId",
          "type": "uint256"
        }
      ],
      "name": "createAuction",
      "outputs": [],
      "stateMutability": "nonpayable",
      "type": "function"
    },
    {
      "inputs": [],
      "name": "initialize",
      "outputs": [],
      "stateMutability": "nonpayable",
      "type": "function"
    },
    {
      "inputs": [],
      "name": "nextAuctionId",
      "outputs": [
        {
          "internalType": "uint256",
          "name": "",
          "type": "uint256"
        }
      ],
      "stateMutability": "view",
      "type": "function"
    },
    {
      "inputs": [
        {
          "internalType": "uint256",
          "name": "_auctionId",
          "type": "uint256"
        }
      ],
      "name": "placeBid",
      "outputs": [],
      "stateMutability": "payable",
      "type": "function"
    },
    {
      "inputs": [],
      "name": "testHello",
      "outputs": [
        {
          "internalType": "string",
          "name": "",
          "type": "string"
        }
      ],
      "stateMutability": "pure",
      "type": "function"
    }
  ],
  "bytecode": "0x6080604052348015600f57600080fd5b50610e848061001f6000396000f3fe6080604052600436106100555760003560e01c80638129fc1c1461005a5780639979ef4514610071578063b1cb48ef1461008d578063c97c6353146100b6578063f851a440146100e1578063fc5284821461010c575b600080fd5b34801561006657600080fd5b5061006f610137565b005b61008b600480360381019061008691906108cf565b6102fd565b005b34801561009957600080fd5b506100b460048036038101906100af919061095a565b6104f2565b005b3480156100c257600080fd5b506100cb6107ec565b6040516100d89190610a51565b60405180910390f35b3480156100ed57600080fd5b506100f6610829565b6040516101039190610a82565b60405180910390f35b34801561011857600080fd5b5061012161084f565b60405161012e9190610aac565b60405180910390f35b6000610141610855565b905060008160000160089054906101000a900460ff1615905060008260000160009054906101000a900467ffffffffffffffff1690506000808267ffffffffffffffff1614801561018f5750825b9050600060018367ffffffffffffffff161480156101c4575060003073ffffffffffffffffffffffffffffffffffffffff163b145b9050811580156101d2575080155b15610209576040517ff92ee8a900000000000000000000000000000000000000000000000000000000815260040160405180910390fd5b60018560000160006101000a81548167ffffffffffffffff021916908367ffffffffffffffff16021790555083156102595760018560000160086101000a81548160ff0219169083151502179055505b33600260006101000a81548173ffffffffffffffffffffffffffffffffffffffff021916908373ffffffffffffffffffffffffffffffffffffffff16021790555083156102f65760008560000160086101000a81548160ff0219169083151502179055507fc7f505b2f371ae2175ee4913f4499e1f2633a7b5936321eed1cdaeb6115181d260016040516102ed9190610b20565b60405180910390a15b5050505050565b600080600083815260200190815260200160002090508060030160009054906101000a900460ff16158015610345575042816001015482600401546103429190610b6a565b11155b610384576040517f08c379a000000000000000000000000000000000000000000000000000000000815260040161037b90610bea565b60405180910390fd5b80600501543411801561039b575080600201543410155b6103da576040517f08c379a00000000000000000000000000000000000000000000000000000000081526004016103d190610c7c565b60405180910390fd5b600073ffffffffffffffffffffffffffffffffffffffff168160030160019054906101000a900473ffffffffffffffffffffffffffffffffffffffff1673ffffffffffffffffffffffffffffffffffffffff16146104a2578060030160019054906101000a900473ffffffffffffffffffffffffffffffffffffffff1673ffffffffffffffffffffffffffffffffffffffff166108fc82600501549081150290604051600060405180830381858888f193505050501580156104a0573d6000803e3d6000fd5b505b338160030160016101000a81548173ffffffffffffffffffffffffffffffffffffffff021916908373ffffffffffffffffffffffffffffffffffffffff1602179055503481600501819055505050565b600260009054906101000a900473ffffffffffffffffffffffffffffffffffffffff1673ffffffffffffffffffffffffffffffffffffffff163373ffffffffffffffffffffffffffffffffffffffff1614610582576040517f08c379a000000000000000000000000000000000000000000000000000000000815260040161057990610ce8565b60405180910390fd5b600084116105c5576040517f08c379a00000000000000000000000000000000000000000000000000000000081526004016105bc90610d54565b60405180910390fd5b60008311610608576040517f08c379a00000000000000000000000000000000000000000000000000000000081526004016105ff90610de6565b60405180910390fd5b6040518061012001604052803373ffffffffffffffffffffffffffffffffffffffff168152602001858152602001848152602001600015158152602001600073ffffffffffffffffffffffffffffffffffffffff168152602001428152602001600081526020018373ffffffffffffffffffffffffffffffffffffffff16815260200182815250600080600154815260200190815260200160002060008201518160000160006101000a81548173ffffffffffffffffffffffffffffffffffffffff021916908373ffffffffffffffffffffffffffffffffffffffff160217905550602082015181600101556040820151816002015560608201518160030160006101000a81548160ff02191690831515021790555060808201518160030160016101000a81548173ffffffffffffffffffffffffffffffffffffffff021916908373ffffffffffffffffffffffffffffffffffffffff16021790555060a0820151816004015560c0820151816005015560e08201518160060160006101000a81548173ffffffffffffffffffffffffffffffffffffffff021916908373ffffffffffffffffffffffffffffffffffffffff1602179055506101008201518160070155905050600160008154809291906107e190610e06565b919050555050505050565b60606040518060400160405280600d81526020017f48656c6c6f2c20576f726c642100000000000000000000000000000000000000815250905090565b600260009054906101000a900473ffffffffffffffffffffffffffffffffffffffff1681565b60015481565b600080610860610869565b90508091505090565b60007ff0c57e16840df040f15088dc2f81fe391c3923bec73e23a9662efc9c229c6a0060001b905090565b600080fd5b6000819050919050565b6108ac81610899565b81146108b757600080fd5b50565b6000813590506108c9816108a3565b92915050565b6000602082840312156108e5576108e4610894565b5b60006108f3848285016108ba565b91505092915050565b600073ffffffffffffffffffffffffffffffffffffffff82169050919050565b6000610927826108fc565b9050919050565b6109378161091c565b811461094257600080fd5b50565b6000813590506109548161092e565b92915050565b6000806000806080858703121561097457610973610894565b5b6000610982878288016108ba565b9450506020610993878288016108ba565b93505060406109a487828801610945565b92505060606109b5878288016108ba565b91505092959194509250565b600081519050919050565b600082825260208201905092915050565b60005b838110156109fb5780820151818401526020810190506109e0565b60008484015250505050565b6000601f19601f8301169050919050565b6000610a23826109c1565b610a2d81856109cc565b9350610a3d8185602086016109dd565b610a4681610a07565b840191505092915050565b60006020820190508181036000830152610a6b8184610a18565b905092915050565b610a7c8161091c565b82525050565b6000602082019050610a976000830184610a73565b92915050565b610aa681610899565b82525050565b6000602082019050610ac16000830184610a9d565b92915050565b6000819050919050565b600067ffffffffffffffff82169050919050565b6000819050919050565b6000610b0a610b05610b0084610ac7565b610ae5565b610ad1565b9050919050565b610b1a81610aef565b82525050565b6000602082019050610b356000830184610b11565b92915050565b7f4e487b7100000000000000000000000000000000000000000000000000000000600052601160045260246000fd5b6000610b7582610899565b9150610b8083610899565b9250828201905080821115610b9857610b97610b3b565b5b92915050565b7f41756374696f6e2068617320656e6465642e0000000000000000000000000000600082015250565b6000610bd46012836109cc565b9150610bdf82610b9e565b602082019050919050565b60006020820190508181036000830152610c0381610bc7565b9050919050565b7f426964206d75737420766520686967686572207468616e20746865206375727260008201527f656e742068696768657374206269642e00000000000000000000000000000000602082015250565b6000610c666030836109cc565b9150610c7182610c0a565b604082019050919050565b60006020820190508181036000830152610c9581610c59565b9050919050565b7f4f6e6c792061646d696e206372656174652061756374696f6e73000000000000600082015250565b6000610cd2601a836109cc565b9150610cdd82610c9c565b602082019050919050565b60006020820190508181036000830152610d0181610cc5565b9050919050565b7f4475726174696f6e206d7573742062652067726561746572207468616e203000600082015250565b6000610d3e601f836109cc565b9150610d4982610d08565b602082019050919050565b60006020820190508181036000830152610d6d81610d31565b9050919050565b7f5374617274207072696365206d7573742062652067726561746572207468616e60008201527f2030000000000000000000000000000000000000000000000000000000000000602082015250565b6000610dd06022836109cc565b9150610ddb82610d74565b604082019050919050565b60006020820190508181036000830152610dff81610dc3565b9050919050565b6000610e1182610899565b91507fffffffffffffffffffffffffffffffffffffffffffffffffffffffffffffffff8203610e4357610e42610b3b565b5b60018201905091905056fea2646970667358221220ce3ea6a23ecede06f0cdecb5ae72424e64429468ee269880b77e53311e280f3164736f6c634300081c0033",
  "linkReferences": {},
  "deployedLinkReferences": {}
}