{
  "_format": "hh-sol-artifact-1",
  "contractName": "NftAuctionV2",
  "sourceName": "contracts/NftAuctionV2.sol",
  "abi": [
    {
      "inputs": [],
      "name": "InvalidInitialization",
      "type": "error"
    },
    {
      "inputs": [],
      "name": "NotInitializing",
      "type": "error"
    },
    {
      "anonymous": false,
      "inputs": [
        {
          "indexed": false,
          "internalType": "uint64",
          "name": "version",
          "type": "uint64"
        }
      ],
      "name": "Initialized",
      "type": "event"
    },
    {
      "inputs": [],
      "name": "admin",
      "outputs": [
        {
          "internalType": "address",
          "name": "",
          "type": "address"
        }
      ],
      "stateMutability": "view",
      "type": "function"
    },
    {
      "inputs": [
        {
          "internalType": "uint256",
          "name": "",
          "type": "uint256"
        }
      ],
      "name": "auctions",
      "outputs": [
        {
          "internalType": "address",
          "name": "seller",
          "type": "address"
        },
        {
          "internalType": "uint256",
          "name": "duration",
          "type": "uint256"
        },
        {
          "internalType": "uint256",
          "name": "startPrice",
          "type": "uint256"
        },
        {
          "internalType": "bool",
          "name": "ended",
          "type": "bool"
        },
        {
          "internalType": "address",
          "name": "highestBidder",
          "type": "address"
        },
        {
          "internalType": "uint256",
          "name": "startTime",
          "type": "uint256"
        },
        {
          "internalType": "uint256",
          "name": "highestBid",
          "type": "uint256"
        },
        {
          "internalType": "address",
          "name": "nftContract",
          "type": "address"
        },
        {
          "internalType": "uint256",
          "name": "tokenId",
          "type": "uint256"
        }
      ],
      "stateMutability": "view",
      "type": "function"
    },
    {
      "inputs": [
        {
          "internalType": "uint256",
          "name": "_duration",
          "type": "uint256"
        },
        {
          "internalType": "uint256",
          "name": "_startPrice",
          "type": "uint256"
        },
        {
          "internalType": "address",
          "name": "_nftAddress",
          "type": "address"
        },
        {
          "internalType": "uint256",
          "name": "_tokenId",
          "type": "uint256"
        }
      ],
      "name": "createAuction",
      "outputs": [],
      "stateMutability": "nonpayable",
      "type": "function"
    },
    {
      "inputs": [],
      "name": "initialize",
      "outputs": [],
      "stateMutability": "nonpayable",
      "type": "function"
    },
    {
      "inputs": [],
      "name": "nextAuctionId",
      "outputs": [
        {
          "internalType": "uint256",
          "name": "",
          "type": "uint256"
        }
      ],
      "stateMutability": "view",
      "type": "function"
    },
    {
      "inputs": [
        {
          "internalType": "uint256",
          "name": "_auctionId",
          "type": "uint256"
        }
      ],
      "name": "placeBid",
      "outputs": [],
      "stateMutability": "payable",
      "type": "function"
    },
    {
      "inputs": [],
      "name": "testHello",
      "outputs": [
        {
          "internalType": "string",
          "name": "",
          "type": "string"
        }
      ],
      "stateMutability": "pure",
      "type": "function"
    }
  ],
  "bytecode": "0x6080604052348015600f57600080fd5b506110478061001f6000396000f3fe6080604052600436106100705760003560e01c8063b1cb48ef1161004e578063b1cb48ef146100ed578063c97c635314610116578063f851a44014610141578063fc5284821461016c57610070565b8063571a26a0146100755780638129fc1c146100ba5780639979ef45146100d1575b600080fd5b34801561008157600080fd5b5061009c600480360381019061009791906109ea565b610197565b6040516100b199989796959493929190610a82565b60405180910390f35b3480156100c657600080fd5b506100cf610252565b005b6100eb60048036038101906100e691906109ea565b610418565b005b3480156100f957600080fd5b50610114600480360381019061010f9190610b3b565b61060d565b005b34801561012257600080fd5b5061012b610907565b6040516101389190610c32565b60405180910390f35b34801561014d57600080fd5b50610156610944565b6040516101639190610c54565b60405180910390f35b34801561017857600080fd5b5061018161096a565b60405161018e9190610c6f565b60405180910390f35b60006020528060005260406000206000915090508060000160009054906101000a900473ffffffffffffffffffffffffffffffffffffffff16908060010154908060020154908060030160009054906101000a900460ff16908060030160019054906101000a900473ffffffffffffffffffffffffffffffffffffffff16908060040154908060050154908060060160009054906101000a900473ffffffffffffffffffffffffffffffffffffffff16908060070154905089565b600061025c610970565b905060008160000160089054906101000a900460ff1615905060008260000160009054906101000a900467ffffffffffffffff1690506000808267ffffffffffffffff161480156102aa5750825b9050600060018367ffffffffffffffff161480156102df575060003073ffffffffffffffffffffffffffffffffffffffff163b145b9050811580156102ed575080155b15610324576040517ff92ee8a900000000000000000000000000000000000000000000000000000000815260040160405180910390fd5b60018560000160006101000a81548167ffffffffffffffff021916908367ffffffffffffffff16021790555083156103745760018560000160086101000a81548160ff0219169083151502179055505b33600260006101000a81548173ffffffffffffffffffffffffffffffffffffffff021916908373ffffffffffffffffffffffffffffffffffffffff16021790555083156104115760008560000160086101000a81548160ff0219169083151502179055507fc7f505b2f371ae2175ee4913f4499e1f2633a7b5936321eed1cdaeb6115181d260016040516104089190610ce3565b60405180910390a15b5050505050565b600080600083815260200190815260200160002090508060030160009054906101000a900460ff161580156104605750428160010154826004015461045d9190610d2d565b11155b61049f576040517f08c379a000000000000000000000000000000000000000000000000000000000815260040161049690610dad565b60405180910390fd5b8060050154341180156104b6575080600201543410155b6104f5576040517f08c379a00000000000000000000000000000000000000000000000000000000081526004016104ec90610e3f565b60405180910390fd5b600073ffffffffffffffffffffffffffffffffffffffff168160030160019054906101000a900473ffffffffffffffffffffffffffffffffffffffff1673ffffffffffffffffffffffffffffffffffffffff16146105bd578060030160019054906101000a900473ffffffffffffffffffffffffffffffffffffffff1673ffffffffffffffffffffffffffffffffffffffff166108fc82600501549081150290604051600060405180830381858888f193505050501580156105bb573d6000803e3d6000fd5b505b338160030160016101000a81548173ffffffffffffffffffffffffffffffffffffffff021916908373ffffffffffffffffffffffffffffffffffffffff1602179055503481600501819055505050565b600260009054906101000a900473ffffffffffffffffffffffffffffffffffffffff1673ffffffffffffffffffffffffffffffffffffffff163373ffffffffffffffffffffffffffffffffffffffff161461069d576040517f08c379a000000000000000000000000000000000000000000000000000000000815260040161069490610eab565b60405180910390fd5b600084116106e0576040517f08c379a00000000000000000000000000000000000000000000000000000000081526004016106d790610f17565b60405180910390fd5b60008311610723576040517f08c379a000000000000000000000000000000000000000000000000000000000815260040161071a90610fa9565b60405180910390fd5b6040518061012001604052803373ffffffffffffffffffffffffffffffffffffffff168152602001858152602001848152602001600015158152602001600073ffffffffffffffffffffffffffffffffffffffff168152602001428152602001600081526020018373ffffffffffffffffffffffffffffffffffffffff16815260200182815250600080600154815260200190815260200160002060008201518160000160006101000a81548173ffffffffffffffffffffffffffffffffffffffff021916908373ffffffffffffffffffffffffffffffffffffffff160217905550602082015181600101556040820151816002015560608201518160030160006101000a81548160ff02191690831515021790555060808201518160030160016101000a81548173ffffffffffffffffffffffffffffffffffffffff021916908373ffffffffffffffffffffffffffffffffffffffff16021790555060a0820151816004015560c0820151816005015560e08201518160060160006101000a81548173ffffffffffffffffffffffffffffffffffffffff021916908373ffffffffffffffffffffffffffffffffffffffff1602179055506101008201518160070155905050600160008154809291906108fc90610fc9565b919050555050505050565b60606040518060400160405280600d81526020017f48656c6c6f2c20576f726c642100000000000000000000000000000000000000815250905090565b600260009054906101000a900473ffffffffffffffffffffffffffffffffffffffff1681565b60015481565b60008061097b610984565b90508091505090565b60007ff0c57e16840df040f15088dc2f81fe391c3923bec73e23a9662efc9c229c6a0060001b905090565b600080fd5b6000819050919050565b6109c7816109b4565b81146109d257600080fd5b50565b6000813590506109e4816109be565b92915050565b600060208284031215610a00576109ff6109af565b5b6000610a0e848285016109d5565b91505092915050565b600073ffffffffffffffffffffffffffffffffffffffff82169050919050565b6000610a4282610a17565b9050919050565b610a5281610a37565b82525050565b610a61816109b4565b82525050565b60008115159050919050565b610a7c81610a67565b82525050565b600061012082019050610a98600083018c610a49565b610aa5602083018b610a58565b610ab2604083018a610a58565b610abf6060830189610a73565b610acc6080830188610a49565b610ad960a0830187610a58565b610ae660c0830186610a58565b610af360e0830185610a49565b610b01610100830184610a58565b9a9950505050505050505050565b610b1881610a37565b8114610b2357600080fd5b50565b600081359050610b3581610b0f565b92915050565b60008060008060808587031215610b5557610b546109af565b5b6000610b63878288016109d5565b9450506020610b74878288016109d5565b9350506040610b8587828801610b26565b9250506060610b96878288016109d5565b91505092959194509250565b600081519050919050565b600082825260208201905092915050565b60005b83811015610bdc578082015181840152602081019050610bc1565b60008484015250505050565b6000601f19601f8301169050919050565b6000610c0482610ba2565b610c0e8185610bad565b9350610c1e818560208601610bbe565b610c2781610be8565b840191505092915050565b60006020820190508181036000830152610c4c8184610bf9565b905092915050565b6000602082019050610c696000830184610a49565b92915050565b6000602082019050610c846000830184610a58565b92915050565b6000819050919050565b600067ffffffffffffffff82169050919050565b6000819050919050565b6000610ccd610cc8610cc384610c8a565b610ca8565b610c94565b9050919050565b610cdd81610cb2565b82525050565b6000602082019050610cf86000830184610cd4565b92915050565b7f4e487b7100000000000000000000000000000000000000000000000000000000600052601160045260246000fd5b6000610d38826109b4565b9150610d43836109b4565b9250828201905080821115610d5b57610d5a610cfe565b5b92915050565b7f41756374696f6e2068617320656e6465642e0000000000000000000000000000600082015250565b6000610d97601283610bad565b9150610da282610d61565b602082019050919050565b60006020820190508181036000830152610dc681610d8a565b9050919050565b7f426964206d75737420766520686967686572207468616e20746865206375727260008201527f656e742068696768657374206269642e00000000000000000000000000000000602082015250565b6000610e29603083610bad565b9150610e3482610dcd565b604082019050919050565b60006020820190508181036000830152610e5881610e1c565b9050919050565b7f4f6e6c792061646d696e206372656174652061756374696f6e73000000000000600082015250565b6000610e95601a83610bad565b9150610ea082610e5f565b602082019050919050565b60006020820190508181036000830152610ec481610e88565b9050919050565b7f4475726174696f6e206d7573742062652067726561746572207468616e203000600082015250565b6000610f01601f83610bad565b9150610f0c82610ecb565b602082019050919050565b60006020820190508181036000830152610f3081610ef4565b9050919050565b7f5374617274207072696365206d7573742062652067726561746572207468616e60008201527f2030000000000000000000000000000000000000000000000000000000000000602082015250565b6000610f93602283610bad565b9150610f9e82610f37565b604082019050919050565b60006020820190508181036000830152610fc281610f86565b9050919050565b6000610fd4826109b4565b91507fffffffffffffffffffffffffffffffffffffffffffffffffffffffffffffffff820361100657611005610cfe565b5b60018201905091905056fea2646970667358221220f2fcab005f1834f2fad190f32ed3f4e1fb336e833834149680aa83454184eb3464736f6c634300081c0033",
  "linkReferences": {},
  "deployedLinkReferences": {}
}