{
  "_format": "hh-sol-artifact-1",
  "contractName": "NftAuction",
  "sourceName": "contracts/NftAuction.sol",
  "abi": [
    {
      "inputs": [],
      "name": "InvalidInitialization",
      "type": "error"
    },
    {
      "inputs": [],
      "name": "NotInitializing",
      "type": "error"
    },
    {
      "anonymous": false,
      "inputs": [
        {
          "indexed": false,
          "internalType": "uint64",
          "name": "version",
          "type": "uint64"
        }
      ],
      "name": "Initialized",
      "type": "event"
    },
    {
      "inputs": [],
      "name": "admin",
      "outputs": [
        {
          "internalType": "address",
          "name": "",
          "type": "address"
        }
      ],
      "stateMutability": "view",
      "type": "function"
    },
    {
      "inputs": [
        {
          "internalType": "uint256",
          "name": "",
          "type": "uint256"
        }
      ],
      "name": "auctions",
      "outputs": [
        {
          "internalType": "address",
          "name": "seller",
          "type": "address"
        },
        {
          "internalType": "uint256",
          "name": "duration",
          "type": "uint256"
        },
        {
          "internalType": "uint256",
          "name": "startPrice",
          "type": "uint256"
        },
        {
          "internalType": "bool",
          "name": "ended",
          "type": "bool"
        },
        {
          "internalType": "address",
          "name": "highestBidder",
          "type": "address"
        },
        {
          "internalType": "uint256",
          "name": "startTime",
          "type": "uint256"
        },
        {
          "internalType": "uint256",
          "name": "highestBid",
          "type": "uint256"
        },
        {
          "internalType": "address",
          "name": "nftContract",
          "type": "address"
        },
        {
          "internalType": "uint256",
          "name": "tokenId",
          "type": "uint256"
        }
      ],
      "stateMutability": "view",
      "type": "function"
    },
    {
      "inputs": [
        {
          "internalType": "uint256",
          "name": "_duration",
          "type": "uint256"
        },
        {
          "internalType": "uint256",
          "name": "_startPrice",
          "type": "uint256"
        },
        {
          "internalType": "address",
          "name": "_nftAddress",
          "type": "address"
        },
        {
          "internalType": "uint256",
          "name": "_tokenId",
          "type": "uint256"
        }
      ],
      "name": "createAuction",
      "outputs": [],
      "stateMutability": "nonpayable",
      "type": "function"
    },
    {
      "inputs": [],
      "name": "initialize",
      "outputs": [],
      "stateMutability": "nonpayable",
      "type": "function"
    },
    {
      "inputs": [],
      "name": "nextAuctionId",
      "outputs": [
        {
          "internalType": "uint256",
          "name": "",
          "type": "uint256"
        }
      ],
      "stateMutability": "view",
      "type": "function"
    },
    {
      "inputs": [
        {
          "internalType": "uint256",
          "name": "_auctionId",
          "type": "uint256"
        }
      ],
      "name": "placeBid",
      "outputs": [],
      "stateMutability": "payable",
      "type": "function"
    }
  ],
  "bytecode": "0x6080604052348015600f57600080fd5b50610f238061001f6000396000f3fe6080604052600436106100555760003560e01c8063571a26a01461005a5780638129fc1c1461009f5780639979ef45146100b6578063b1cb48ef146100d2578063f851a440146100fb578063fc52848214610126575b600080fd5b34801561006657600080fd5b50610081600480360381019061007c9190610967565b610151565b604051610096999897969594939291906109ff565b60405180910390f35b3480156100ab57600080fd5b506100b461020c565b005b6100d060048036038101906100cb9190610967565b6103d2565b005b3480156100de57600080fd5b506100f960048036038101906100f49190610ab8565b6105c7565b005b34801561010757600080fd5b506101106108c1565b60405161011d9190610b1f565b60405180910390f35b34801561013257600080fd5b5061013b6108e7565b6040516101489190610b3a565b60405180910390f35b60006020528060005260406000206000915090508060000160009054906101000a900473ffffffffffffffffffffffffffffffffffffffff16908060010154908060020154908060030160009054906101000a900460ff16908060030160019054906101000a900473ffffffffffffffffffffffffffffffffffffffff16908060040154908060050154908060060160009054906101000a900473ffffffffffffffffffffffffffffffffffffffff16908060070154905089565b60006102166108ed565b905060008160000160089054906101000a900460ff1615905060008260000160009054906101000a900467ffffffffffffffff1690506000808267ffffffffffffffff161480156102645750825b9050600060018367ffffffffffffffff16148015610299575060003073ffffffffffffffffffffffffffffffffffffffff163b145b9050811580156102a7575080155b156102de576040517ff92ee8a900000000000000000000000000000000000000000000000000000000815260040160405180910390fd5b60018560000160006101000a81548167ffffffffffffffff021916908367ffffffffffffffff160217905550831561032e5760018560000160086101000a81548160ff0219169083151502179055505b33600260006101000a81548173ffffffffffffffffffffffffffffffffffffffff021916908373ffffffffffffffffffffffffffffffffffffffff16021790555083156103cb5760008560000160086101000a81548160ff0219169083151502179055507fc7f505b2f371ae2175ee4913f4499e1f2633a7b5936321eed1cdaeb6115181d260016040516103c29190610bae565b60405180910390a15b5050505050565b600080600083815260200190815260200160002090508060030160009054906101000a900460ff1615801561041a575042816001015482600401546104179190610bf8565b11155b610459576040517f08c379a000000000000000000000000000000000000000000000000000000000815260040161045090610c89565b60405180910390fd5b806005015434118015610470575080600201543410155b6104af576040517f08c379a00000000000000000000000000000000000000000000000000000000081526004016104a690610d1b565b60405180910390fd5b600073ffffffffffffffffffffffffffffffffffffffff168160030160019054906101000a900473ffffffffffffffffffffffffffffffffffffffff1673ffffffffffffffffffffffffffffffffffffffff1614610577578060030160019054906101000a900473ffffffffffffffffffffffffffffffffffffffff1673ffffffffffffffffffffffffffffffffffffffff166108fc82600501549081150290604051600060405180830381858888f19350505050158015610575573d6000803e3d6000fd5b505b338160030160016101000a81548173ffffffffffffffffffffffffffffffffffffffff021916908373ffffffffffffffffffffffffffffffffffffffff1602179055503481600501819055505050565b600260009054906101000a900473ffffffffffffffffffffffffffffffffffffffff1673ffffffffffffffffffffffffffffffffffffffff163373ffffffffffffffffffffffffffffffffffffffff1614610657576040517f08c379a000000000000000000000000000000000000000000000000000000000815260040161064e90610d87565b60405180910390fd5b6000841161069a576040517f08c379a000000000000000000000000000000000000000000000000000000000815260040161069190610df3565b60405180910390fd5b600083116106dd576040517f08c379a00000000000000000000000000000000000000000000000000000000081526004016106d490610e85565b60405180910390fd5b6040518061012001604052803373ffffffffffffffffffffffffffffffffffffffff168152602001858152602001848152602001600015158152602001600073ffffffffffffffffffffffffffffffffffffffff168152602001428152602001600081526020018373ffffffffffffffffffffffffffffffffffffffff16815260200182815250600080600154815260200190815260200160002060008201518160000160006101000a81548173ffffffffffffffffffffffffffffffffffffffff021916908373ffffffffffffffffffffffffffffffffffffffff160217905550602082015181600101556040820151816002015560608201518160030160006101000a81548160ff02191690831515021790555060808201518160030160016101000a81548173ffffffffffffffffffffffffffffffffffffffff021916908373ffffffffffffffffffffffffffffffffffffffff16021790555060a0820151816004015560c0820151816005015560e08201518160060160006101000a81548173ffffffffffffffffffffffffffffffffffffffff021916908373ffffffffffffffffffffffffffffffffffffffff1602179055506101008201518160070155905050600160008154809291906108b690610ea5565b919050555050505050565b600260009054906101000a900473ffffffffffffffffffffffffffffffffffffffff1681565b60015481565b6000806108f8610901565b90508091505090565b60007ff0c57e16840df040f15088dc2f81fe391c3923bec73e23a9662efc9c229c6a0060001b905090565b600080fd5b6000819050919050565b61094481610931565b811461094f57600080fd5b50565b6000813590506109618161093b565b92915050565b60006020828403121561097d5761097c61092c565b5b600061098b84828501610952565b91505092915050565b600073ffffffffffffffffffffffffffffffffffffffff82169050919050565b60006109bf82610994565b9050919050565b6109cf816109b4565b82525050565b6109de81610931565b82525050565b60008115159050919050565b6109f9816109e4565b82525050565b600061012082019050610a15600083018c6109c6565b610a22602083018b6109d5565b610a2f604083018a6109d5565b610a3c60608301896109f0565b610a4960808301886109c6565b610a5660a08301876109d5565b610a6360c08301866109d5565b610a7060e08301856109c6565b610a7e6101008301846109d5565b9a9950505050505050505050565b610a95816109b4565b8114610aa057600080fd5b50565b600081359050610ab281610a8c565b92915050565b60008060008060808587031215610ad257610ad161092c565b5b6000610ae087828801610952565b9450506020610af187828801610952565b9350506040610b0287828801610aa3565b9250506060610b1387828801610952565b91505092959194509250565b6000602082019050610b3460008301846109c6565b92915050565b6000602082019050610b4f60008301846109d5565b92915050565b6000819050919050565b600067ffffffffffffffff82169050919050565b6000819050919050565b6000610b98610b93610b8e84610b55565b610b73565b610b5f565b9050919050565b610ba881610b7d565b82525050565b6000602082019050610bc36000830184610b9f565b92915050565b7f4e487b7100000000000000000000000000000000000000000000000000000000600052601160045260246000fd5b6000610c0382610931565b9150610c0e83610931565b9250828201905080821115610c2657610c25610bc9565b5b92915050565b600082825260208201905092915050565b7f41756374696f6e2068617320656e6465642e0000000000000000000000000000600082015250565b6000610c73601283610c2c565b9150610c7e82610c3d565b602082019050919050565b60006020820190508181036000830152610ca281610c66565b9050919050565b7f426964206d75737420766520686967686572207468616e20746865206375727260008201527f656e742068696768657374206269642e00000000000000000000000000000000602082015250565b6000610d05603083610c2c565b9150610d1082610ca9565b604082019050919050565b60006020820190508181036000830152610d3481610cf8565b9050919050565b7f4f6e6c792061646d696e206372656174652061756374696f6e73000000000000600082015250565b6000610d71601a83610c2c565b9150610d7c82610d3b565b602082019050919050565b60006020820190508181036000830152610da081610d64565b9050919050565b7f4475726174696f6e206d7573742062652067726561746572207468616e203000600082015250565b6000610ddd601f83610c2c565b9150610de882610da7565b602082019050919050565b60006020820190508181036000830152610e0c81610dd0565b9050919050565b7f5374617274207072696365206d7573742062652067726561746572207468616e60008201527f2030000000000000000000000000000000000000000000000000000000000000602082015250565b6000610e6f602283610c2c565b9150610e7a82610e13565b604082019050919050565b60006020820190508181036000830152610e9e81610e62565b9050919050565b6000610eb082610931565b91507fffffffffffffffffffffffffffffffffffffffffffffffffffffffffffffffff8203610ee257610ee1610bc9565b5b60018201905091905056fea2646970667358221220b4d3b1909dbed18df7bff8631bdfcfcfc0c108280bfee3bcb15c48d1abfe2af964736f6c634300081c0033",
  "linkReferences": {},
  "deployedLinkReferences": {}
}