{
  "_format": "hh-sol-artifact-1",
  "contractName": "NftAuction",
  "sourceName": "contracts/NftAuction.sol",
  "abi": [
    {
      "inputs": [
        {
          "internalType": "address",
          "name": "target",
          "type": "address"
        }
      ],
      "name": "AddressEmptyCode",
      "type": "error"
    },
    {
      "inputs": [
        {
          "internalType": "address",
          "name": "implementation",
          "type": "address"
        }
      ],
      "name": "ERC1967InvalidImplementation",
      "type": "error"
    },
    {
      "inputs": [],
      "name": "ERC1967NonPayable",
      "type": "error"
    },
    {
      "inputs": [],
      "name": "FailedCall",
      "type": "error"
    },
    {
      "inputs": [],
      "name": "InvalidInitialization",
      "type": "error"
    },
    {
      "inputs": [],
      "name": "NotInitializing",
      "type": "error"
    },
    {
      "inputs": [],
      "name": "UUPSUnauthorizedCallContext",
      "type": "error"
    },
    {
      "inputs": [
        {
          "internalType": "bytes32",
          "name": "slot",
          "type": "bytes32"
        }
      ],
      "name": "UUPSUnsupportedProxiableUUID",
      "type": "error"
    },
    {
      "anonymous": false,
      "inputs": [
        {
          "indexed": false,
          "internalType": "uint64",
          "name": "version",
          "type": "uint64"
        }
      ],
      "name": "Initialized",
      "type": "event"
    },
    {
      "anonymous": false,
      "inputs": [
        {
          "indexed": true,
          "internalType": "address",
          "name": "implementation",
          "type": "address"
        }
      ],
      "name": "Upgraded",
      "type": "event"
    },
    {
      "inputs": [],
      "name": "UPGRADE_INTERFACE_VERSION",
      "outputs": [
        {
          "internalType": "string",
          "name": "",
          "type": "string"
        }
      ],
      "stateMutability": "view",
      "type": "function"
    },
    {
      "inputs": [],
      "name": "admin",
      "outputs": [
        {
          "internalType": "address",
          "name": "",
          "type": "address"
        }
      ],
      "stateMutability": "view",
      "type": "function"
    },
    {
      "inputs": [
        {
          "internalType": "uint256",
          "name": "",
          "type": "uint256"
        }
      ],
      "name": "auctions",
      "outputs": [
        {
          "internalType": "address",
          "name": "seller",
          "type": "address"
        },
        {
          "internalType": "uint256",
          "name": "duration",
          "type": "uint256"
        },
        {
          "internalType": "uint256",
          "name": "startPrice",
          "type": "uint256"
        },
        {
          "internalType": "bool",
          "name": "ended",
          "type": "bool"
        },
        {
          "internalType": "address",
          "name": "highestBidder",
          "type": "address"
        },
        {
          "internalType": "uint256",
          "name": "startTime",
          "type": "uint256"
        },
        {
          "internalType": "uint256",
          "name": "highestBid",
          "type": "uint256"
        },
        {
          "internalType": "address",
          "name": "nftContract",
          "type": "address"
        },
        {
          "internalType": "uint256",
          "name": "tokenId",
          "type": "uint256"
        }
      ],
      "stateMutability": "view",
      "type": "function"
    },
    {
      "inputs": [
        {
          "internalType": "uint256",
          "name": "_duration",
          "type": "uint256"
        },
        {
          "internalType": "uint256",
          "name": "_startPrice",
          "type": "uint256"
        },
        {
          "internalType": "address",
          "name": "_nftAddress",
          "type": "address"
        },
        {
          "internalType": "uint256",
          "name": "_tokenId",
          "type": "uint256"
        }
      ],
      "name": "createAuction",
      "outputs": [],
      "stateMutability": "nonpayable",
      "type": "function"
    },
    {
      "inputs": [],
      "name": "initialize",
      "outputs": [],
      "stateMutability": "nonpayable",
      "type": "function"
    },
    {
      "inputs": [],
      "name": "nextAuctionId",
      "outputs": [
        {
          "internalType": "uint256",
          "name": "",
          "type": "uint256"
        }
      ],
      "stateMutability": "view",
      "type": "function"
    },
    {
      "inputs": [
        {
          "internalType": "uint256",
          "name": "_auctionId",
          "type": "uint256"
        }
      ],
      "name": "placeBid",
      "outputs": [],
      "stateMutability": "payable",
      "type": "function"
    },
    {
      "inputs": [],
      "name": "proxiableUUID",
      "outputs": [
        {
          "internalType": "bytes32",
          "name": "",
          "type": "bytes32"
        }
      ],
      "stateMutability": "view",
      "type": "function"
    },
    {
      "inputs": [
        {
          "internalType": "address",
          "name": "newImplementation",
          "type": "address"
        },
        {
          "internalType": "bytes",
          "name": "data",
          "type": "bytes"
        }
      ],
      "name": "upgradeToAndCall",
      "outputs": [],
      "stateMutability": "payable",
      "type": "function"
    }
  ],
  "bytecode": "0x60a06040523073ffffffffffffffffffffffffffffffffffffffff1660809073ffffffffffffffffffffffffffffffffffffffff16815250348015604257600080fd5b50608051611a3d61006c60003960008181610a1d01528181610a720152610cb50152611a3d6000f3fe6080604052600436106100865760003560e01c80639979ef45116100595780639979ef451461012e578063ad3cb1cc1461014a578063b1cb48ef14610175578063f851a4401461019e578063fc528482146101c957610086565b80634f1ef2861461008b57806352d1902d146100a7578063571a26a0146100d25780638129fc1c14610117575b600080fd5b6100a560048036038101906100a09190611266565b6101f4565b005b3480156100b357600080fd5b506100bc610213565b6040516100c991906112db565b60405180910390f35b3480156100de57600080fd5b506100f960048036038101906100f4919061132c565b610246565b60405161010e99989796959493929190611392565b60405180910390f35b34801561012357600080fd5b5061012c610301565b005b6101486004803603810190610143919061132c565b6104c7565b005b34801561015657600080fd5b5061015f6106bc565b60405161016c919061149e565b60405180910390f35b34801561018157600080fd5b5061019c600480360381019061019791906114c0565b6106f5565b005b3480156101aa57600080fd5b506101b36109ef565b6040516101c09190611527565b60405180910390f35b3480156101d557600080fd5b506101de610a15565b6040516101eb9190611542565b60405180910390f35b6101fc610a1b565b61020582610b01565b61020f8282610b94565b5050565b600061021d610cb3565b7f360894a13ba1a3210667c828492db98dca3e2076cc3735a920a3ca505d382bbc60001b905090565b60006020528060005260406000206000915090508060000160009054906101000a900473ffffffffffffffffffffffffffffffffffffffff16908060010154908060020154908060030160009054906101000a900460ff16908060030160019054906101000a900473ffffffffffffffffffffffffffffffffffffffff16908060040154908060050154908060060160009054906101000a900473ffffffffffffffffffffffffffffffffffffffff16908060070154905089565b600061030b610d3a565b905060008160000160089054906101000a900460ff1615905060008260000160009054906101000a900467ffffffffffffffff1690506000808267ffffffffffffffff161480156103595750825b9050600060018367ffffffffffffffff1614801561038e575060003073ffffffffffffffffffffffffffffffffffffffff163b145b90508115801561039c575080155b156103d3576040517ff92ee8a900000000000000000000000000000000000000000000000000000000815260040160405180910390fd5b60018560000160006101000a81548167ffffffffffffffff021916908367ffffffffffffffff16021790555083156104235760018560000160086101000a81548160ff0219169083151502179055505b33600260006101000a81548173ffffffffffffffffffffffffffffffffffffffff021916908373ffffffffffffffffffffffffffffffffffffffff16021790555083156104c05760008560000160086101000a81548160ff0219169083151502179055507fc7f505b2f371ae2175ee4913f4499e1f2633a7b5936321eed1cdaeb6115181d260016040516104b791906115b6565b60405180910390a15b5050505050565b600080600083815260200190815260200160002090508060030160009054906101000a900460ff1615801561050f5750428160010154826004015461050c9190611600565b11155b61054e576040517f08c379a000000000000000000000000000000000000000000000000000000000815260040161054590611680565b60405180910390fd5b806005015434118015610565575080600201543410155b6105a4576040517f08c379a000000000000000000000000000000000000000000000000000000000815260040161059b90611712565b60405180910390fd5b600073ffffffffffffffffffffffffffffffffffffffff168160030160019054906101000a900473ffffffffffffffffffffffffffffffffffffffff1673ffffffffffffffffffffffffffffffffffffffff161461066c578060030160019054906101000a900473ffffffffffffffffffffffffffffffffffffffff1673ffffffffffffffffffffffffffffffffffffffff166108fc82600501549081150290604051600060405180830381858888f1935050505015801561066a573d6000803e3d6000fd5b505b338160030160016101000a81548173ffffffffffffffffffffffffffffffffffffffff021916908373ffffffffffffffffffffffffffffffffffffffff1602179055503481600501819055505050565b6040518060400160405280600581526020017f352e302e3000000000000000000000000000000000000000000000000000000081525081565b600260009054906101000a900473ffffffffffffffffffffffffffffffffffffffff1673ffffffffffffffffffffffffffffffffffffffff163373ffffffffffffffffffffffffffffffffffffffff1614610785576040517f08c379a000000000000000000000000000000000000000000000000000000000815260040161077c9061177e565b60405180910390fd5b600084116107c8576040517f08c379a00000000000000000000000000000000000000000000000000000000081526004016107bf906117ea565b60405180910390fd5b6000831161080b576040517f08c379a00000000000000000000000000000000000000000000000000000000081526004016108029061187c565b60405180910390fd5b6040518061012001604052803373ffffffffffffffffffffffffffffffffffffffff168152602001858152602001848152602001600015158152602001600073ffffffffffffffffffffffffffffffffffffffff168152602001428152602001600081526020018373ffffffffffffffffffffffffffffffffffffffff16815260200182815250600080600154815260200190815260200160002060008201518160000160006101000a81548173ffffffffffffffffffffffffffffffffffffffff021916908373ffffffffffffffffffffffffffffffffffffffff160217905550602082015181600101556040820151816002015560608201518160030160006101000a81548160ff02191690831515021790555060808201518160030160016101000a81548173ffffffffffffffffffffffffffffffffffffffff021916908373ffffffffffffffffffffffffffffffffffffffff16021790555060a0820151816004015560c0820151816005015560e08201518160060160006101000a81548173ffffffffffffffffffffffffffffffffffffffff021916908373ffffffffffffffffffffffffffffffffffffffff1602179055506101008201518160070155905050600160008154809291906109e49061189c565b919050555050505050565b600260009054906101000a900473ffffffffffffffffffffffffffffffffffffffff1681565b60015481565b7f000000000000000000000000000000000000000000000000000000000000000073ffffffffffffffffffffffffffffffffffffffff163073ffffffffffffffffffffffffffffffffffffffff161480610ac857507f000000000000000000000000000000000000000000000000000000000000000073ffffffffffffffffffffffffffffffffffffffff16610aaf610d4e565b73ffffffffffffffffffffffffffffffffffffffff1614155b15610aff576040517fe07c8dba00000000000000000000000000000000000000000000000000000000815260040160405180910390fd5b565b600260009054906101000a900473ffffffffffffffffffffffffffffffffffffffff1673ffffffffffffffffffffffffffffffffffffffff163373ffffffffffffffffffffffffffffffffffffffff1614610b91576040517f08c379a0000000000000000000000000000000000000000000000000000000008152600401610b8890611930565b60405180910390fd5b50565b8173ffffffffffffffffffffffffffffffffffffffff166352d1902d6040518163ffffffff1660e01b8152600401602060405180830381865afa925050508015610bfc57506040513d601f19601f82011682018060405250810190610bf9919061197c565b60015b610c3d57816040517f4c9c8ce3000000000000000000000000000000000000000000000000000000008152600401610c349190611527565b60405180910390fd5b7f360894a13ba1a3210667c828492db98dca3e2076cc3735a920a3ca505d382bbc60001b8114610ca457806040517faa1d49a4000000000000000000000000000000000000000000000000000000008152600401610c9b91906112db565b60405180910390fd5b610cae8383610da5565b505050565b7f000000000000000000000000000000000000000000000000000000000000000073ffffffffffffffffffffffffffffffffffffffff163073ffffffffffffffffffffffffffffffffffffffff1614610d38576040517fe07c8dba00000000000000000000000000000000000000000000000000000000815260040160405180910390fd5b565b600080610d45610e18565b90508091505090565b6000610d7c7f360894a13ba1a3210667c828492db98dca3e2076cc3735a920a3ca505d382bbc60001b610e43565b60000160009054906101000a900473ffffffffffffffffffffffffffffffffffffffff16905090565b610dae82610e4d565b8173ffffffffffffffffffffffffffffffffffffffff167fbc7cd75a20ee27fd9adebab32041f755214dbc6bffa90cc0225b39da2e5c2d3b60405160405180910390a2600081511115610e0b57610e058282610f1a565b50610e14565b610e13610f9e565b5b5050565b60007ff0c57e16840df040f15088dc2f81fe391c3923bec73e23a9662efc9c229c6a0060001b905090565b6000819050919050565b60008173ffffffffffffffffffffffffffffffffffffffff163b03610ea957806040517f4c9c8ce3000000000000000000000000000000000000000000000000000000008152600401610ea09190611527565b60405180910390fd5b80610ed67f360894a13ba1a3210667c828492db98dca3e2076cc3735a920a3ca505d382bbc60001b610e43565b60000160006101000a81548173ffffffffffffffffffffffffffffffffffffffff021916908373ffffffffffffffffffffffffffffffffffffffff16021790555050565b60606000808473ffffffffffffffffffffffffffffffffffffffff1684604051610f4491906119f0565b600060405180830381855af49150503d8060008114610f7f576040519150601f19603f3d011682016040523d82523d6000602084013e610f84565b606091505b5091509150610f94858383610fdb565b9250505092915050565b6000341115610fd9576040517fb398979f00000000000000000000000000000000000000000000000000000000815260040160405180910390fd5b565b606082610ff057610feb8261106a565b611062565b60008251148015611018575060008473ffffffffffffffffffffffffffffffffffffffff163b145b1561105a57836040517f9996b3150000000000000000000000000000000000000000000000000000000081526004016110519190611527565b60405180910390fd5b819050611063565b5b9392505050565b60008151111561107c57805160208201fd5b6040517fd6bda27500000000000000000000000000000000000000000000000000000000815260040160405180910390fd5b6000604051905090565b600080fd5b600080fd5b600073ffffffffffffffffffffffffffffffffffffffff82169050919050565b60006110ed826110c2565b9050919050565b6110fd816110e2565b811461110857600080fd5b50565b60008135905061111a816110f4565b92915050565b600080fd5b600080fd5b6000601f19601f8301169050919050565b7f4e487b7100000000000000000000000000000000000000000000000000000000600052604160045260246000fd5b6111738261112a565b810181811067ffffffffffffffff821117156111925761119161113b565b5b80604052505050565b60006111a56110ae565b90506111b1828261116a565b919050565b600067ffffffffffffffff8211156111d1576111d061113b565b5b6111da8261112a565b9050602081019050919050565b82818337600083830152505050565b6000611209611204846111b6565b61119b565b90508281526020810184848401111561122557611224611125565b5b6112308482856111e7565b509392505050565b600082601f83011261124d5761124c611120565b5b813561125d8482602086016111f6565b91505092915050565b6000806040838503121561127d5761127c6110b8565b5b600061128b8582860161110b565b925050602083013567ffffffffffffffff8111156112ac576112ab6110bd565b5b6112b885828601611238565b9150509250929050565b6000819050919050565b6112d5816112c2565b82525050565b60006020820190506112f060008301846112cc565b92915050565b6000819050919050565b611309816112f6565b811461131457600080fd5b50565b60008135905061132681611300565b92915050565b600060208284031215611342576113416110b8565b5b600061135084828501611317565b91505092915050565b611362816110e2565b82525050565b611371816112f6565b82525050565b60008115159050919050565b61138c81611377565b82525050565b6000610120820190506113a8600083018c611359565b6113b5602083018b611368565b6113c2604083018a611368565b6113cf6060830189611383565b6113dc6080830188611359565b6113e960a0830187611368565b6113f660c0830186611368565b61140360e0830185611359565b611411610100830184611368565b9a9950505050505050505050565b600081519050919050565b600082825260208201905092915050565b60005b8381101561145957808201518184015260208101905061143e565b60008484015250505050565b60006114708261141f565b61147a818561142a565b935061148a81856020860161143b565b6114938161112a565b840191505092915050565b600060208201905081810360008301526114b88184611465565b905092915050565b600080600080608085870312156114da576114d96110b8565b5b60006114e887828801611317565b94505060206114f987828801611317565b935050604061150a8782880161110b565b925050606061151b87828801611317565b91505092959194509250565b600060208201905061153c6000830184611359565b92915050565b60006020820190506115576000830184611368565b92915050565b6000819050919050565b600067ffffffffffffffff82169050919050565b6000819050919050565b60006115a061159b6115968461155d565b61157b565b611567565b9050919050565b6115b081611585565b82525050565b60006020820190506115cb60008301846115a7565b92915050565b7f4e487b7100000000000000000000000000000000000000000000000000000000600052601160045260246000fd5b600061160b826112f6565b9150611616836112f6565b925082820190508082111561162e5761162d6115d1565b5b92915050565b7f41756374696f6e2068617320656e6465642e0000000000000000000000000000600082015250565b600061166a60128361142a565b915061167582611634565b602082019050919050565b600060208201905081810360008301526116998161165d565b9050919050565b7f426964206d75737420766520686967686572207468616e20746865206375727260008201527f656e742068696768657374206269642e00000000000000000000000000000000602082015250565b60006116fc60308361142a565b9150611707826116a0565b604082019050919050565b6000602082019050818103600083015261172b816116ef565b9050919050565b7f4f6e6c792061646d696e206372656174652061756374696f6e73000000000000600082015250565b6000611768601a8361142a565b915061177382611732565b602082019050919050565b600060208201905081810360008301526117978161175b565b9050919050565b7f4475726174696f6e206d7573742062652067726561746572207468616e203000600082015250565b60006117d4601f8361142a565b91506117df8261179e565b602082019050919050565b60006020820190508181036000830152611803816117c7565b9050919050565b7f5374617274207072696365206d7573742062652067726561746572207468616e60008201527f2030000000000000000000000000000000000000000000000000000000000000602082015250565b600061186660228361142a565b91506118718261180a565b604082019050919050565b6000602082019050818103600083015261189581611859565b9050919050565b60006118a7826112f6565b91507fffffffffffffffffffffffffffffffffffffffffffffffffffffffffffffffff82036118d9576118d86115d1565b5b600182019050919050565b7f4f6e6c792061646d696e2063616e20757067726164652e000000000000000000600082015250565b600061191a60178361142a565b9150611925826118e4565b602082019050919050565b600060208201905081810360008301526119498161190d565b9050919050565b611959816112c2565b811461196457600080fd5b50565b60008151905061197681611950565b92915050565b600060208284031215611992576119916110b8565b5b60006119a084828501611967565b91505092915050565b600081519050919050565b600081905092915050565b60006119ca826119a9565b6119d481856119b4565b93506119e481856020860161143b565b80840191505092915050565b60006119fc82846119bf565b91508190509291505056fea2646970667358221220de3cc3595d6d179a3b83aa4d5ce5a64641a4c3e8cafbb516cae1c0b958fba97964736f6c634300081c0033",
  "linkReferences": {},
  "deployedLinkReferences": {}
}